:1000000099C00000B8C00000B6C00000B4C0000035
:10001000B2C00000B0C00000AEC00000ACC0000024
:10002000AAC00000A8C00000A6C00000A4C0000034
:10003000A2C000000C9479119EC000009CC000007A
:100040009AC0000098C0000096C0000094C0000054
:1000500092C0000090C000008EC000008CC0000064
:100060008AC0000088C0000086C0000084C0000074
:1000700082C0000080C000007EC000007CC0000084
:100080007AC0000078C0000076C0000074C0000094
:100090000C9446120C942A126EC000006CC0000032
:1000A0006AC0000068C000000C94681164C00000C1
:1000B00062C0000060C000005EC000005CC00000C4
:1000C0005AC0000058C0000056C0000054C00000D4
:1000D00052C0000050C000004EC000004CC00000E4
:1000E0004AC0000048C0000046C0000044C00000F4
:1000F00042C0000040C000003EC000003CC0000004
:100100003AC0000038C0000036C0000034C0000013
:1001100032C0000030C000002EC000002CC0000023
:100120002AC0000028C0000026C0000024C0000033
:1001300022C0000011241FBECFEFD1E8DEBFCDBF2B
:1001400000E00CBF17E0A0E0B2E0E6EBF1E400E075
:100150000BBF02C007900D92AE3AB107D9F72FE15D
:10016000AEEAB7E001C01D92AF3CB207E1F70E94D2
:1001700029100C94D92044CFFC0120812F5F2083CB
:1001800021110CC031969C01285F3F4F90819F5FE9
:100190009193911103C0E217F307C1F70895FC0191
:1001A00021816281862F90E0A0E0B0E0DC019927F8
:1001B0008827922B2081822B2381BC01CD01922B99
:1001C0000895FC0140835183628373830895CF9225
:1001D000DF92EF92FF920F931F93CF93DF9300D0A4
:1001E000CDB7DEB77C018C010F2EF4E1CF2ED12CE0
:1001F000F02D1DC00E94DD11F80181918F018A3020
:1002000051F08D3041F0CF018E199F09B6010E9447
:10021000F81C892B61F40E949D121B828B81853012
:1002200030F48B818F5F8B838B818530D0F3F80125
:1002300080818111DFCF0E949D121A8219828981EB
:100240009A818436910550F489819A8101969A8326
:10025000898389819A8184369105B0F30F900F903C
:100260000F90DF91CF911F910F91FF90EF90DF9052
:10027000CF90089584E092E0AADF8091D707813083
:1002800039F48BE292E0A3DF8BE592E0A0CF0895F2
:10029000823039F486E792E09ADF88E395E097CFE1
:1002A00008958DEA92E093CF08951092AB08809163
:1002B000D707813019F48FEB92E089CF089584EF4E
:1002C00092E085DF8CE093E082DF8BE193E07FDFDB
:1002D0000C949D1208953F924F925F926F927F927D
:1002E0008F929F92AF92BF92CF92DF92EF92FF9246
:1002F0000F931F93CF93DF9300D0CDB7DEB7062FB8
:10030000172F442E64DF411031C02CC0F6018191BB
:100310006F017801FFEFEF1AFF0A1F928F93BF92D0
:10032000AF921F923F927F926F920E949F1D898190
:100330000E94DD118A810E94DD110E5F1F4F037044
:1003400011270FB6F894DEBF0FBECDBF012B31F4DD
:10035000E414F5041CF480E20E94DD11870180168C
:100360009106A1F68DEF96E032DF37C0C02ED12E78
:10037000F60181916F011F928F938CE293E09F931E
:100380008F931F9283E08F93CE0101969F938F935B
:100390000E949F1D89810E94DD118A810E94DD11CA
:1003A00088248A94840C912C0FB6F894DEBF0FBE7B
:1003B000CDBF00E010E00F2EFCE2AF2EF3E0BF2E29
:1003C000F02D0F2EF3E03F2EF02DFE0131963F0170
:1003D000512CF1E04F1A5108C2CF0F900F900F909F
:1003E000DF91CF911F910F91FF90EF90DF90CF9011
:1003F000BF90AF909F908F907F906F905F904F9045
:100400003F9008954F925F926F927F928F929F924A
:10041000AF92BF92CF92DF92EF92FF920F931F9312
:10042000CF93DF9300D000D0CDB7DEB79E838D830E
:100430008B0149015A01811421E09206A104B10403
:1004400039F00F2EF2E4EF2EF3E0FF2EF02D06C070
:100450000F2EF1E3EF2EF3E0FF2EF02DC7019FDE0C
:10046000AD81BE816D937D938D939C931397C7014E
:10047000049695DEED81FE81648B758B868B978B60
:10048000C70108968CDEAD81BE8198966D937D93F1
:100490008D939C939B97C7010C9681DEED81FE8125
:1004A00064AF75AF86AF97AFC80179DE2B013C0111
:1004B000AD81BE8114966D937D938D939C93179718
:1004C000C80104966CDE69837A838B839C83ED81FB
:1004D000FE816087718782879387C80108965FDEF7
:1004E0006B017C01AD81BE811C966D937D938D93D4
:1004F0009C931F97C8010C9652DEED81FE81608BA4
:10050000718B828B938B8114F1E09F06A104B1045F
:1005100049F5C801409643DEAD81BE819C966D933E
:100520007D938D939C939F97C801449638DEED810F
:10053000FE8160AB71AB82AB93ABC80148962FDEF6
:10054000AD81BE81D4966D937D938D939C93D79707
:10055000C8014C9624DEED81FE8160AF71AF82AFA1
:1005600093AF1DC0AD81BE819C964D925D926D9200
:100570007C929F9729813A814B815C81D0962D9303
:100580003D934D935C93D397FD01C4AAD5AAE6AAE7
:10059000F7AAD8966D937D938D939C93DB97ED810D
:1005A000FE8110A211A212A213A214A215A216A2D9
:1005B00017A226960FB6F894DEBF0FBECDBFDF910F
:1005C000CF911F910F91FF90EF90DF90CF90BF9050
:1005D000AF909F908F907F906F905F904F90089515
:1005E0000F931F93CF93DF93EC018B01CB01D7DDEA
:1005F000688F798F8A8F9B8FC8010496D0DD6C8FAE
:100600007D8F8E8F9F8F18A219A21AA21BA21CA2E7
:100610001DA21EA21FA2DF91CF911F910F910895DD
:100620002F923F924F925F926F927F928F929F9202
:10063000AF92BF92CF92DF92EF92FF920F931F93F0
:10064000CF93DF93CDB7DEB7CE5BD1090FB6F89469
:10065000DEBF0FBECDBF1C01CD57DF4F798368834E
:10066000C358D040CB57DF4F59834883C558D0403B
:10067000EB963FAF2EAFEB97232B11F40C94D50DD7
:10068000D1014D905D906D907C901397C957DF4FCD
:10069000488259826A827B82C758D04014964D9016
:1006A0005D906D907C901797C557DF4F48825982B7
:1006B0006A827B82CB58D04018964D905D906D90A9
:1006C0007C901B97C157DF4F488259826A827B8298
:1006D000CF58D0401C964D905D906D907C901F97A8
:1006E000CD56DF4F488259826A827B82C359D040FF
:1006F00050964D905D906D907C905397C956DF4F0A
:10070000488259826A827B82C759D04054964D9064
:100710005D906D907C905797C556DF4F4882598207
:100720006A827B82CB59D04058964D905D906D90F7
:100730007C905B97C156DF4F488259826A827B82E8
:10074000CF59D0405C964D905D906D907C905F97B6
:10075000CD55DF4F488259826A827B82C35AD0408E
:1007600090964D905D906D907C909397C955DF4F1A
:10077000488259826A827B82C75AD04094964D90B3
:100780005D906D907C909797C555DF4F4882598258
:100790006A827B82CB5AD04098964D905D906D9046
:1007A0007C909B97C155DF4F488259826A827B8239
:1007B000CF5AD0409C964D905D906D907C909F97C5
:1007C000CD54DF4F488259826A827B82C35BD0401E
:1007D000D0964D905D906D907C90D397EF964CAEF7
:1007E0005DAE6EAE7FAEEF97D4964D905D906D90FE
:1007F0007C90D797C158DF4F488259826A827B82AA
:10080000CF57D040D8964D905D906D907C90DB97FF
:10081000C954DF4F488259826A827B82C75BD040CD
:10082000DC964D905D906D907C90DF97C554DF4FC6
:10083000488259826A827B82CB5BD040CD55DF4FA4
:10084000488059806A807B80C35AD04061964CAE04
:100850005DAE6EAE7FAE6197CD56DF4FC880D9805A
:10086000EA80FB80C359D040E596CCAEDDAEEEAE5B
:10087000FFAEE597C554DF4FE880F9800A811B8100
:10088000CB5BD040AD96ECAEFDAE0EAF1FAFAD97DB
:10089000CD54DF4F088119812A813B81C35BD04051
:1008A0006D960CAF1DAF2EAF3FAF6D97C157DF4FA9
:1008B000288139814A815B81CF58D040E1962CAFA5
:1008C0003DAF4EAF5FAFE197C954DF4F48815981CB
:1008D0006A817B81C75BD040A1964CAF5DAF6EAFA4
:1008E0007FAFA197C155DF4F688179818A819B8154
:1008F000CF5AD04069966CAF7DAF8EAF9FAF6997EE
:10090000C156DF4F88819981AA81BB81CF59D040E0
:100910002D968CAF9DAFAEAFBFAF2D97C158DF4FB7
:10092000488059806A807B80CF57D040C555DF4FC3
:10093000C880D980EA80FB80CB5AD0406596CCAE87
:10094000DDAEEEAEFFAE6597C556DF4FE880F980AD
:100950000A811B81CB59D0402996ECAEFDAE0EAF7B
:100960001FAF2997C557DF4F088119812A813B8125
:10097000CB58D040A9960CAF1DAF2EAF3FAFA99773
:10098000C955DF4F88809980AA80BB80C75AD04064
:10099000C956DF4F288139814A815B81C759D040D0
:1009A00025962CAF3DAF4EAF5FAF2597EF968CAD40
:1009B0009DADAEADBFADEF97C957DF4F48815981AF
:1009C0006A817B81C758D040A5964CAF5DAF6EAFB2
:1009D0007FAFA597EAE0F0E0A596CCACDDACEEAC3D
:1009E000FFACA597C80ED91EEA1EFB1E9701860113
:1009F000000F111F221F331F000F111F221F331F53
:100A0000000F111F221F331F000F111F221F331F42
:100A1000000F111F221F331F000F111F221F331F32
:100A2000000F111F221F331F0B2EB9E1F694E7941C
:100A3000D794C794BA95D1F7B02DC02AD12AE22A0B
:100A4000F32A25960CAD1DAD2EAD3FAD25970C2597
:100A50001D252E253F2525960CAF1DAF2EAF3FAF90
:100A60002597B901A801A596CCACDDACEEACFFACE6
:100A7000A5974C0D5D1D6E1D7F1D8A019B010F2EDC
:100A8000F9E0000F111F221F331FFA95D1F7F02D47
:100A9000032E37E176956795579547953A95D1F7A7
:100AA000302D402B512B622B732B84269526A626A6
:100AB000B72625964CAD5DAD6EAD7FAD2597480D43
:100AC000591D6A1D7B1D8A019B010F2EFDE0000F41
:100AD000111F221F331FFA95D1F7F02D032E33E19A
:100AE00076956795579547953A95D1F7302D402BD8
:100AF000512B622B732B7A018B01E826F9260A27EA
:100B00001B27E996ECAEFDAE0EAF1FAFE99798013B
:100B10008701080D191D2A1D3B1D680179010B2E47
:100B2000BEE0F694E794D794C794BA95D1F7B02D68
:100B30000F2EF2E1000F111F221F331FFA95D1F77C
:100B4000F02D0C291D292E293F29A5964CAD5DAD10
:100B50006EAD7FADA5974027512762277327A596D5
:100B60004CAF5DAF6EAF7FAFA597A9964CAD5DADB5
:100B70006EAD7FADA99729968CAD9DADAEADBFADE5
:100B80002997480F591F6A1F7B1FDB01CA01880F75
:100B9000991FAA1FBB1F880F991FAA1FBB1F880F71
:100BA000991FAA1FBB1F880F991FAA1FBB1F880F61
:100BB000991FAA1FBB1F880F991FAA1FBB1F880F51
:100BC000991FAA1FBB1F032E39E17695679557958C
:100BD00047953A95D1F7302D482B592B6A2B7B2B13
:100BE0006596CCACDDACEEACFFAC6597C426D526E3
:100BF000E626F7266596CCAEDDAEEEAEFFAE659787
:100C0000D701C6012996ECACFDAC0EAD1FAD2997FE
:100C10008E0D9F1DA01FB11FAC01BD01032E39E039
:100C2000440F551F661F771F3A95D1F7302D072EB9
:100C300077E1B695A795979587957A95D1F7702D19
:100C4000842B952BA62BB72B482659266A267B2664
:100C500065968CAD9DADAEADBFAD6597840D951D10
:100C6000A61DB71DAC01BD01032E3DE0440F551F6D
:100C7000661F771F3A95D1F7302D072E73E1B69591
:100C8000A795979587957A95D1F7702D842B952BFD
:100C9000A62BB72BA9960CAD1DAD2EAD3FADA997D8
:100CA000082719272A273B27A9960CAF1DAF2EAF7F
:100CB0003FAFA997D901C801840D951DA61DB71D89
:100CC000AC01BD01032E3EE076956795579547959B
:100CD0003A95D1F7302D072E72E1880F991FAA1F80
:100CE000BB1F7A95D1F7702D842B952BA62BB72B94
:100CF00029962CAD3DAD4EAD5FAD299728273927FC
:100D00004A275B2729962CAF3DAF4EAF5FAF29979F
:100D10002D964CAD5DAD6EAD7FAD2D9769968CADCA
:100D20009DADAEADBFAD6997480F591F6A1F7B1FC0
:100D3000DB01CA01880F991FAA1FBB1F880F991FCB
:100D4000AA1FBB1F880F991FAA1FBB1F880F991FBF
:100D5000AA1FBB1F880F991FAA1FBB1F880F991FAF
:100D6000AA1FBB1F880F991FAA1FBB1F032E39E1A3
:100D700076956795579547953A95D1F7302D482B3D
:100D8000592B6A2B7B2BA196CCACDDACEEACFFAC27
:100D9000A197C426D526E626F726A196CCAEDDAED1
:100DA000EEAEFFAEA197D701C6016996ECACFDACE3
:100DB0000EAD1FAD69978E0D9F1DA01FB11F8C0139
:100DC0009D010F2EF9E0000F111F221F331FFA950E
:100DD000D1F7F02D072E77E1B695A79597958795D2
:100DE0007A95D1F7702D802B912BA22BB32BE19606
:100DF0004CAD5DAD6EAD7FADE197482759276A27B1
:100E00007B27A1968CAD9DADAEADBFADA197840FF4
:100E1000951FA61FB71F8C019D010F2EFDE0000F2F
:100E2000111F221F331FFA95D1F7F02D072E73E102
:100E3000B695A795979587957A95D1F7702D802BC4
:100E4000912BA22BB32B2D960CAD1DAD2EAD3FAD2E
:100E50002D97082719272A273B272D960CAF1DAF62
:100E60002EAF3FAF2D97D901C801840F951FA61F44
:100E7000B71F8C019D010F2EFEE036952795179523
:100E80000795FA95D1F7F02D072E72E1880F991F7B
:100E9000AA1FBB1F7A95D1F7702D802B912BA22B07
:100EA000B32B6996CCACDDACEEACFFAC6997C82631
:100EB000D926EA26FB266996CCAEDDAEEEAEFFAEB5
:100EC00069976D96CCACDDACEEACFFAC6D97AD9692
:100ED0000CAD1DAD2EAD3FADAD97C00ED11EE21EC7
:100EE000F31E97018601000F111F221F331F000FF1
:100EF000111F221F331F000F111F221F331F000F4E
:100F0000111F221F331F000F111F221F331F000F3D
:100F1000111F221F331F000F111F221F331F0B2E03
:100F2000B9E1F694E794D794C794BA95D1F7B02D68
:100F3000C02AD12AE22AF32AE5968CAD9DADAEAD4A
:100F4000BFADE5978C259D25AE25BF25AD960CAD93
:100F50001DAD2EAD3FADAD97080F191F2A1F3B1FCA
:100F6000680179010B2EB9E0CC0CDD1CEE1CFF1CD6
:100F7000BA95D1F7B02D0F2EF7E136952795179535
:100F80000795FA95D1F7F02D0C291D292E293F2917
:100F90006196CCACDDACEEACFFAC6197C026D1263F
:100FA000E226F3266196CCAEDDAEEEAEFFAE6197E3
:100FB00097018601080F191F2A1F3B1F680179013D
:100FC0000B2EBDE0CC0CDD1CEE1CFF1CBA95D1F73E
:100FD000B02D0F2EF3E13695279517950795FA95C5
:100FE000D1F7F02D0C291D292E293F296D96CCAC67
:100FF000DDACEEACFFAC6D97C026D126E226F32621
:101000006D96CCAEDDAEEEAEFFAE6D9761960CADDB
:101010001DAD2EAD3FAD61970C0D1D1D2E1D3F1D4D
:10102000680179010B2EBEE0F694E794D794C7943B
:10103000BA95D1F7B02D0F2EF2E1000F111F221F2C
:10104000331FFA95D1F7F02D0C291D292E293F29A0
:10105000AD96CCACDDACEEACFFACAD97C026D126E6
:10106000E226F326AD96CCAEDDAEEEAEFFAEAD978A
:10107000A596CCACDDACEEACFFACA597C80ED91EE6
:10108000EA1EFB1E97018601000F111F221F331F4E
:10109000000F111F221F331F000F111F221F331FAC
:1010A000000F111F221F331F000F111F221F331F9C
:1010B000000F111F221F331F000F111F221F331F8C
:1010C0000B2EB9E1F694E794D794C794BA95D1F76B
:1010D000B02DC02AD12AE22AF32AA9960CAD1DAD63
:1010E0002EAD3FADA9970C251D252E253F25A99690
:1010F0000CAF1DAF2EAF3FAFA997A5960CAD1DADA0
:101100002EAD3FADA597A996CCACDDACEEACFFAC57
:10111000A9970C0D1D1D2E1D3F1D680179010B2E79
:10112000B9E0CC0CDD1CEE1CFF1CBA95D1F7B02D3C
:101130000F2EF7E13695279517950795FA95D1F774
:10114000F02D0C291D292E293F2968017901C4267B
:10115000D526E626F726E196CCAEDDAEEEAEFFAEA6
:10116000E197A9964CAD5DAD6EAD7FADA9974C0DE5
:101170005D1D6E1D7F1D8A019B010F2EFDE0000F7E
:10118000111F221F331FFA95D1F7F02D032E33E1E3
:1011900076956795579547953A95D1F7302D402B21
:1011A000512B622B732B7A018B01E826F9260A2733
:1011B0001B27E596ECAEFDAE0EAF1FAFE597E196AF
:1011C0008CAD9DADAEADBFADE1978E0D9F1DA01F47
:1011D000B11FAC01BD01032E3EE076956795579592
:1011E00047953A95D1F7302D072E72E1880F991F58
:1011F000AA1FBB1F7A95D1F7702D842B952BA62B98
:10120000B72BA5960CAD1DAD2EAD3FADA59708270C
:1012100019272A273B27A5960CAF1DAF2EAF3FAF4E
:10122000A5972596CCACDDACEEACFFAC2597299606
:101230002CAD3DAD4EAD5FAD2997C20ED31EE41E61
:10124000F51EB701A601440F551F661F771F440FF7
:10125000551F661F771F440F551F661F771F440FCA
:10126000551F661F771F440F551F661F771F440FBA
:10127000551F661F771F440F551F661F771F0B2EC4
:10128000B9E1F694E794D794C794BA95D1F7B02D05
:10129000C42AD52AE62AF72A2D964CAD5DAD6EAD4F
:1012A0007FAD2D974C255D256E257F252D964CAF66
:1012B0005DAF6EAF7FAF2D9729968CAD9DADAEAD76
:1012C000BFAD2997840F951FA61FB71FAC01BD01A5
:1012D000032E39E0440F551F661F771F3A95D1F74B
:1012E000302D072E77E1B695A795979587957A9536
:1012F000D1F7702D842B952BA62BB72B6196CCACF8
:10130000DDACEEACFFAC6197C826D926EA26FB26F9
:101310006196CCAEDDAEEEAEFFAE61972D968CAD94
:101320009DADAEADBFAD2D978C0D9D1DAE1DBF1DEE
:10133000AC01BD01032E3DE0440F551F661F771F12
:101340003A95D1F7302D072E73E1B695A79597956D
:1013500087957A95D1F7702D842B952BA62BB72BDB
:101360002596ECACFDAC0EAD1FAD2597E826F92611
:101370000A271B272596ECAEFDAE0EAF1FAF2597B3
:1013800061960CAD1DAD2EAD3FAD619725964CAD70
:101390005DAD6EAD7FAD2597040F151F261F371F5E
:1013A000680179010B2EBEE0F694E794D794C794B8
:1013B000BA95D1F7B02D0F2EF2E1000F111F221FA9
:1013C000331FFA95D1F7F02D0C291D292E293F291D
:1013D00029966CAD7DAD8EAD9FAD299760277127A5
:1013E0008227932729966CAF7DAF8EAF9FAF299749
:1013F00065964CAD5DAD6EAD7FAD659769968CAD74
:101400009DADAEADBFAD6997480F591F6A1F7B1FD9
:10141000DB01CA01880F991FAA1FBB1F880F991FE4
:10142000AA1FBB1F880F991FAA1FBB1F880F991FD8
:10143000AA1FBB1F880F991FAA1FBB1F880F991FC8
:10144000AA1FBB1F880F991FAA1FBB1F032E39E1BC
:1014500076956795579547953A95D1F7302D482B56
:10146000592B6A2B7B2B6D96CCACDDACEEACFFAC74
:101470006D97C426D526E626F7266D96CCAEDDAE52
:10148000EEAEFFAE6D9769968CAD9DADAEADBFADC6
:1014900069978C0D9D1DAE1DBF1DAC01BD01032EB6
:1014A00039E0440F551F661F771F3A95D1F7302D4D
:1014B000072E77E1B695A795979587957A95D1F7F9
:1014C000702D842B952BA62BB72B88269926AA2620
:1014D000BB26D701C601880D991DAA1DBB1DAC01F5
:1014E000BD01032E3DE0440F551F661F771F3A953F
:1014F000D1F7302D072E73E1B695A795979587956F
:101500007A95D1F7702D842B952BA62BB72B65964A
:10151000ECACFDAC0EAD1FAD6597E826F9260A27A9
:101520001B276596ECAEFDAE0EAF1FAF6597B801F9
:10153000A701480D591D6A1D7B1D6A017B010B2EF9
:10154000BEE0F694E794D794C794BA95D1F7B02D3E
:10155000032E32E1440F551F661F771F3A95D1F7CE
:10156000302D4C295D296E297F2969960CAD1DAD62
:101570002EAD3FAD69970427152726273727699693
:101580000CAF1DAF2EAF3FAF6997A1964CAD5DADCF
:101590006EAD7FADA197AD968CAD9DADAEADBFAD3F
:1015A000AD97480F591F6A1F7B1FDB01CA01880FC7
:1015B000991FAA1FBB1F880F991FAA1FBB1F880F47
:1015C000991FAA1FBB1F880F991FAA1FBB1F880F37
:1015D000991FAA1FBB1F880F991FAA1FBB1F880F27
:1015E000991FAA1FBB1F032E39E176956795579562
:1015F00047953A95D1F7302D482B592B6A2B7B2BE9
:10160000E9968CAD9DADAEADBFADE997842795272A
:10161000A627B727AD964CAD5DAD6EAD7FADAD974E
:10162000480F591F6A1F7B1F8A019B010F2EF9E08B
:10163000000F111F221F331FFA95D1F7F02D032E33
:1016400037E176956795579547953A95D1F7302DBF
:10165000402B512B622B732B44265526662677266A
:101660008C019D01040D151D261D371D6801790192
:101670000B2EBDE0CC0CDD1CEE1CFF1CBA95D1F787
:10168000B02D0F2EF3E13695279517950795FA950E
:10169000D1F7F02D0C291D292E293F29A196CCAC7C
:1016A000DDACEEACFFACA197C026D126E226F32636
:1016B000A196CCAEDDAEEEAEFFAEA197B701A6010E
:1016C000440D551D661D771D6A017B010B2EBEE082
:1016D000F694E794D794C794BA95D1F7B02D032E1A
:1016E00032E1440F551F661F771F3A95D1F7302D11
:1016F0004C295D296E297F29AD96ECACFDAC0EAD71
:101700001FADAD97E426F52606271727AD96ECAE5C
:10171000FDAE0EAF1FAFAD97319709F05DC9E996E9
:101720004CAE5DAE6EAE7FAEE997C557DF4FC88059
:10173000D980EA80FB80CB58D040A9960CAD1DAD76
:101740002EAD3FADA997C00ED11EE21EF31EC157AC
:10175000DF4F488059806A807B80CF58D040E19627
:101760000CAD1DAD2EAD3FADE197400E511E621E7A
:10177000731EE1964CAE5DAE6EAE7FAEE197CD5678
:10178000DF4F488059806A807B80C359D040E596FE
:101790000CAD1DAD2EAD3FADE597400E511E621E46
:1017A000731EE5964CAE5DAE6EAE7FAEE597C95644
:1017B000DF4F488059806A807B80C759D04025968A
:1017C0000CAD1DAD2EAD3FAD2597400E511E621ED6
:1017D000731E25964CAE5DAE6EAE7FAE2597C55698
:1017E000DF4F488059806A807B80CB59D040299652
:1017F0000CAD1DAD2EAD3FAD2997400E511E621EA2
:10180000731E29964CAE5DAE6EAE7FAE2997C15663
:10181000DF4F488059806A807B80CF59D0402D9619
:101820000CAD1DAD2EAD3FAD2D97400E511E621E6D
:10183000731E2D964CAE5DAE6EAE7FAE2D97CD5520
:10184000DF4F488059806A807B80C35AD0406196C0
:101850000CAD1DAD2EAD3FAD6197400E511E621E09
:10186000731E61964CAE5DAE6EAE7FAE6197C9558C
:10187000DF4F288139814A815B81C75AD040820E6F
:10188000931EA41EB51EC555DF4F488059806A803F
:101890007B80CB5AD04065960CAD1DAD2EAD3FADD3
:1018A0006597400E511E621E731E65964CAE5DAE6E
:1018B0006EAE7FAE6597C155DF4F488059806A8014
:1018C0007B80CF5AD04069960CAD1DAD2EAD3FAD9B
:1018D0006997400E511E621E731E69964CAE5DAE36
:1018E0006EAE7FAE6997CD54DF4F488059806A80D5
:1018F0007B80C35BD0406D960CAD1DAD2EAD3FAD72
:101900006D97400E511E621E731E6D964CAE5DAEFD
:101910006EAE7FAE6D97EF964CAC5DAC6EAC7FACAF
:10192000EF97480E591E6A1E7B1EEF964CAE5DAEB9
:101930006EAE7FAEEF97C158DF4F488059806A8006
:101940007B80CF57D040E9960CAD1DAD2EAD3FAD9D
:10195000E997400E511E621E731EC158DF4F488228
:1019600059826A827B82CF57D040C954DF4F48806A
:1019700059806A807B80C75BD040A1960CAD1DADBD
:101980002EAD3FADA197400E511E621E731EA19653
:101990004CAE5DAE6EAE7FAEA197C554DF4F4880B2
:1019A00059806A807B80CB5BD040AD962CAD3DAD3D
:1019B0004EAD5FADAD97420E531E641E751EC957E6
:1019C000DF4F488159816A817B81C758D040A596F5
:1019D0008CAD9DADAEADBFADA597480F591F6A1F29
:1019E0007B1FCE0101960E94E100B701A601CE0146
:1019F00005960E94E100E1964CAD5DAD6EAD7FAD08
:101A0000E197CE0109960E94E100E5964CAD5DADEF
:101A10006EAD7FADE597CE010D960E94E100259653
:101A20004CAD5DAD6EAD7FAD2597CE0141960E9468
:101A3000E10029964CAD5DAD6EAD7FAD2997CE012D
:101A400045960E94E1002D964CAD5DAD6EAD7FAD2B
:101A50002D97CE0149960E94E10061964CAD5DAD97
:101A60006EAD7FAD6197CE014D960E94E100B5014C
:101A7000A401CE0181960E94E10065964CAD5DAD5A
:101A80006EAD7FAD6597CE0185960E94E1006996A7
:101A90004CAD5DAD6EAD7FAD6997CE0189960E946C
:101AA000E1006D964CAD5DAD6EAD7FAD6D97CE0135
:101AB0008D960E94E100EF964CAD5DAD6EAD7FADB1
:101AC000EF97CE01C1960E94E100C158DF4F4881D7
:101AD00059816A817B81CF57D040CE01C5960E9443
:101AE000E100A1964CAD5DAD6EAD7FADA197CE018D
:101AF000C9960E94E100B301A201CE01CD960E94D9
:101B0000E100EB966EAD7FADEB976134710510F09F
:101B100060E470E061157105F1F0CD57DF4FE881A9
:101B2000F981C358D0409E012F5F3F4FCB57DF4F05
:101B3000A881B981C558D040AF01460F571F8D010C
:101B40009191D9018D919D018927D8018D938D01A6
:101B5000E417F507A9F7CD57DF4F48805980C358E0
:101B6000D040460E571ECD57DF4F59824882C3588A
:101B7000D040CB57DF4F68807980C558D040660E83
:101B8000771ECB57DF4F79826882C558D040EB96DD
:101B9000CEACDFACEB97C61AD70AEB96DFAECEAE73
:101BA000EB97CD2811F00C944003C254DF4F0FB6D1
:101BB000F894DEBF0FBECDBFDF91CF911F910F9183
:101BC000FF90EF90DF90CF90BF90AF909F908F905D
:101BD0007F906F905F904F903F902F9008951F934C
:101BE000CF93DF93CDB7DEB7C054D1090FB6F894C9
:101BF000DEBF0FBECDBF8091D707823009F46EC023
:101C00008091AB0881116AC08091D807882309F4BC
:101C100065C08091AE07813039F083E593E00E9482
:101C2000E7001092D8075AC088E0EFEAF7E0AEE389
:101C3000B8E001900D928A95E1F748E06FEA77E00D
:101C40008FE793E00E946B0140E051E067EB77E0A3
:101C5000CE0101960E9402026FEA77E0CE01019662
:101C60000E94F0021091D807212F30E046E458E09E
:101C700069ED77E0CE0101960E941003412F66E4E2
:101C800078E089E993E00E946B018FEA97E00E9477
:101C9000BC0081E090E02091BE08213011F480E08A
:101CA00090E09093B2088093B108ECEAF8E011E07C
:101CB0001783108782E081878EE398E0938782877D
:101CC0008091D807885F848785E591E0968785872E
:101CD000CF01D0D41092D8071093AB08C05CDF4F6F
:101CE0000FB6F894DEBF0FBECDBFDF91CF911F912D
:101CF0000895BF92CF92DF92EF92FF920F931F93BE
:101D0000CF93DF93009709F49FC07C0100E010E0BF
:101D10006894DD24D1F80F2EF3E0BF2EF02DCC24F3
:101D2000C39472D3C82FD0EED80FDF3518F445D343
:101D300004D409C08D3011F08A3029F48DE03DD3F0
:101D40008AE03BD3FAD39091BD08923089F5C13334
:101D500089F4C092D707C092BE0880EB93E00E943E
:101D6000E700B092BD088091BE0890E040D40E9488
:101D70003A015EC0C23389F4D092D7071092BE08F0
:101D800086ED93E00E94E700B092BD088091BE0806
:101D900090E02DD40E943A014BC0CD3009F448C0E8
:101DA000CA3009F445C08EEF93E00E94E70040C0BE
:101DB000933009F03DC08C2F8F7D8D3469F4809174
:101DC000D807811109C086E294E00E94E700D09212
:101DD000BD080E945F012CC08091D707823039F482
:101DE000CD3011F0CA3021F50E943A0121C0813076
:101DF000F9F4CD3011F0CA3051F4E091D807E5364E
:101E000020F4F0E0E752F84F1082E9DE11C0DF3530
:101E1000B0F4E091D807E53690F481E08E0F80931E
:101E2000D807F0E0E752F84FC083853609F4D7DED3
:101E30000F5F1F4FE016F10609F073CF05C08091C8
:101E4000D8078536A9F7F3CFDF91CF911F910F9176
:101E5000FF90EF90DF90CF90BF900895EF92FF92A8
:101E60000F931F93CF93DF93CDB7DEB7C55BD10937
:101E70000FB6F894DEBF0FBECDBF8C018091AE07C8
:101E8000813031F085E494E00E94E70080E0D3C027
:101E9000D80119968C91893030F484E794E00E943F
:101EA000E70080E0C8C0D8011796ED91FC91189723
:101EB00088E0DE01119601900D928A95E1F77E018E
:101EC000B9E0EB0EF11C8DE6F70111928A95E9F766
:101ED00048E0BE016F5F7F4F87EA94E00E946B018C
:101EE000D80119964C911997485017966D917C918D
:101EF0001897685F7F4F8FEC94E00E946B0140E081
:101F000051E067EB77E0CE018A589F4F0E940202B2
:101F1000BE016F5F7F4FCE018A589F4F0E94F00233
:101F2000F801218530E02850310967817085685FAC
:101F30007F4FA701CE018A589F4F0E941003D801FE
:101F400019964C914850B70186EE94E00E946B01BF
:101F5000F8018185E1E0F0E0EC0FFD1FE80FF11DD5
:101F6000108286E095E00E94E700D80119968C91D6
:101F700090E0089718161906ECF420E030E0F12CF8
:101F8000E9E0F0E0EC0FFD1FE20FF31F808190EE1F
:101F9000980F9F3510F411D202C08EE20ED2CDD22E
:101FA000F3942F2D30E0F801818590E008972817F1
:101FB000390734F38DEF96E00E94E7009981809114
:101FC000AF07891730F1981780F0FE013296A0EB29
:101FD000B7E09E01275F3F4F91918D918917C8F01F
:101FE000981718F0E217F307B9F78091D7078130F7
:101FF00031F48FEB92E00E94E70081E01CC0823058
:1020000031F48CE195E00E94E70081E014C081E0AA
:1020100012C085E595E00E94E70088E0FE01319658
:10202000AFEAB7E001900D928A95E1F78FEA97E069
:102030000E94BC00DACFCB54DF4F0FB6F894DEBF5E
:102040000FBECDBFDF91CF911F910F91FF90EF9009
:102050000895CF93DF93CDB7DEB7E6970FB6F89428
:10206000DEBF0FBECDBF0E94F31B60E076E980E0CB
:1020700090E04ED11CAA1BAA8BA99CA9883E934034
:1020800058F45BD28BA99CA901969CAB8BAB8BA916
:102090009CA9883E9340A8F38CE895E00E94E70055
:1020A00081EC95E00E94E7008DEF96E00E94E7004A
:1020B0008EEC95E00E94E70040D280E490E00E9420
:1020C00088208EAB41E0BE016A5C7F4F80EE95E0D8
:1020D0000E946B018EA9853A19F18AEF95E00E9462
:1020E000E7001092AE0780E2EEE8F7E0A7EBB7E07A
:1020F00001900D928A95E1F740E267EB77E082E28A
:1021000096E00E946B0107EB17E00F2EF7EDCF2E44
:10211000F7E0DF2EF02D78015801A094B09448C06C
:102120001DAA0F2EF7EBCF2EF7E0DF2EF02D0F2E8E
:10213000F7EDEF2EF7E0FF2EF02D8601C8018C1988
:102140009D090E948820F80181938F019DA989270C
:102150008DABEE15FF0591F740E267EB77E08AE380
:1021600096E00E946B0180E290E00E9488208983C3
:1021700041E0BE016B5C7F4F8DE496E00E946B01F5
:1021800041E0BE016F5F7F4F89E696E00E946B01E0
:102190009DA98981981731F081E896E00E94E700B7
:1021A00082E06AC08EEA96E00E94E70081E064C0A7
:1021B000F70161917F01C5018E0F9F1F0E94902042
:1021C000EC14FD04A9F760E0F80181918F01682704
:1021D000EC15FD05C9F780E290E00E94902065EAC9
:1021E00080E490E00E9490208FEC96E00E94E7004F
:1021F00081E08093AE0780E097E00E94E700809145
:10220000BE0890E0F4D180E190E0F8D18FE00E9428
:10221000221B81E00E941E1B6EE27FE081E0F5D16F
:1022200012E00E94FA1B89D18091BD088230C9F367
:10223000833079F081111BC087E297E00E94E700AC
:102240001093BD080E945F01CE0101960E94E70035
:10225000E8CF8091D7078150823018F38AE497E065
:102260000E94E7001093BD080E945F01DACF80E76B
:1022700097E00E94E700D5CF8093AE07C0CF14BE91
:102280000FB6F894A89580916000886180936000F3
:10229000109260000FBEE1E6F0E080E880831082DB
:1022A000789401C008951092A61F80E197E2909360
:1022B000A9008093A800E1EAF0E088E080838081B3
:1022C00082608083E2E7F0E080818260808308950D
:1022D0001F920F920FB60F9211248F938091A61F19
:1022E0008F5F8093A61F8F910F900FBE0F901F904E
:1022F00018951F920F920FB60F9211248F9381E0C1
:102300008093BF088F910F900FBE0F901F9018956C
:10231000DC01CB01880F991FAA1FBB1F880F991FD3
:10232000AA1FBB1F9C01AD01220F331F441F551F65
:10233000220F331F441F551F60E074E284EF90E0CA
:102340000E940B1DBA01A90141505109610971098F
:10235000BB27A72F962F852F8093CD004093CC00CD
:1023600082E08093C80088E98093C90086E080936A
:10237000CA00EEEEFBE08DE59AE09187808780E968
:1023800091E09583848317821682118210821382D2
:102390001282E3E5FAE022EC38E03187208795836A
:1023A000848317821682118210821382128281E046
:1023B0008093C1081092C0080895CF93DF93EEEE8A
:1023C000FBE0268137816481758126173707C9F0C4
:1023D000C085D18542815381DA011196B383A283EE
:1023E000FE01E40FF51F80836A177B0721F410922A
:1023F000F10B1092F00B2F5F3F4F3093F50B2093B2
:10240000F40BDF91CF9108954FB7F894E3E5FAE02C
:102410002085318580819181BC016F5F7F4F718301
:102420006083D901A80FB91F8C91608171812481CB
:1024300035816217730721F41092540A1092530ADF
:10244000E3E5FAE02681378121503109378326837D
:102450004FBF08951F920F920FB60F9211240BB623
:102460000F928F93EF93FF9381E08093C108E9EC83
:10247000F0E080818F7D8083FF91EF918F910F90AD
:102480000BBE0F900FBE0F901F9018951F920F92CA
:102490000FB60F9211240BB60F922F933F934F93C9
:1024A0005F936F937F938F939F93AF93BF93EF93BC
:1024B000FF938091C8002091CE008C7159F5E3E51F
:1024C000FAE046815781848195814817590711F1B7
:1024D0004085518582819381BC016F5F7F4F7383FB
:1024E0006283DA01A80FB91F2C9322813381848182
:1024F00095812817390721F41092560A1092550A2F
:10250000E3E5FAE08681978101969783868381E0EF
:102510008093C008FF91EF91BF91AF919F918F91F0
:102520007F916F915F914F913F912F910F900BBED3
:102530000F900FBE0F901F9018958091F40B909103
:10254000F50B009769F12091C108222349F1EEEEC5
:10255000FBE06085718520813181A9014F5F5F4F6C
:1025600051834083DB01A20FB31F2C9164817581DD
:102570004617570721F41092EF0B1092EE0B0197BC
:102580009093F50B8093F40B9FB7F8942093CE00B3
:10259000E9ECF0E08081806280831092C1089FBFE7
:1025A0002FB7F8949091C0081092C0084091590A32
:1025B00050915A0A2FBF992311F0CA019ACB08955E
:1025C000E7EAFFE1148215821182108217A216A297
:1025D000EDEAFFE18DEC9FE111921192E817F90706
:1025E000D9F742D660D30DD140D092C108959093CF
:1025F000A81F8093A71F0C94381B08959093AA1FBF
:102600008093A91F0C94261B0895E82FF0E0EE0F8D
:10261000FF1FE355F04E7183608308958BD320D75D
:102620004DC00895E091F80BF091F90B3097D9F077
:10263000228133818217930789F405C02281338177
:102640002817390759F4DC01AD57BF4F2C91278764
:1026500013962C91208B22E0248305C00190F081F9
:10266000E02D309759F711C108951092F90B10928F
:10267000F80B0895FC011482178613821282A7EAD0
:10268000BFE196968D919C919797019697969C9312
:102690008E9396978091F80B9091F90B009739F4EF
:1026A00011821082F093F90BE093F80B0895918357
:1026B0008083F093F90BE093F80B08950F931F9329
:1026C000CF93DF93E091F80BF091F90B309709F479
:1026D00093C0EF018C81882321F0823009F466C019
:1026E00085C09AD08C01009721F482E08C838F877B
:1026F00083C09B838A8381E08C83F801E957FF4F75
:1027000082E193E1918380833197898582FB8827D9
:1027100080F980839985D8011B968C911B9790FB3B
:1027200080F91B968C931B97998593FB992790F9B9
:1027300090FB82F91B968C931B97E7EAFFE184815B
:102740008F5F84831C968C931C97808191811E9649
:102750009C938E931D978D819E8150969C938E9312
:102760001F978885982F9F7051968C915197807FE5
:10277000892B51968C9351979F819295907F8F7062
:10278000892B51968C93F801EF57FF4F4C8550E001
:102790006A857B85808191810E94961DF8019181D7
:1027A0008C85890F8183C80182D526C0EC17FD076F
:1027B00041F4808191819093F90B8093F80B0AC0CA
:1027C000FC01808191818C179D07D1F788819981C7
:1027D00091838083E7EAFFE186A197A1019797A300
:1027E00086A3ED85FE85CE01199506C00990D88196
:1027F000C02D209709F06ECFDF91CF911F910F91DF
:102800000895EAEFFBE088E09CE11082E757FF4F74
:10281000E817F907D1F708958091FA0B882359F04A
:10282000E3E8FCE068E07CE181E090E0AC0120813D
:10283000211122C002C040E050E069E8649F90018D
:10284000659F300D1124C9018650944FFC011192EF
:102850006A95E9F740E1FC014183EF57FF4F245FA0
:10286000334F31832083E7EAFFE126A137A12F5FB1
:102870003F4F37A326A308950196E757FF4FE6176A
:10288000F707A1F680E090E00895FC011082E7EAE6
:10289000FFE186A197A1019797A386A308950097CA
:1028A00041F0FC01E757FF4F8CE1E830F80718F0E2
:1028B00012C0EAEFFBE08081882321F00FC0808105
:1028C00081110FC0E757FF4F8CE1E830F807B8F3EC
:1028D00080E090E0089580E090E008958E2F9F2F93
:1028E00008958E2F9F2F0895FC01DC01AD57BF4F37
:1028F0001C92A7EABFE114969C9114979F5F1496CF
:102900009C93149794878D919C91968785870895C1
:10291000A9E0BCE180E090E04FEF5FEF11965C939F
:102920004E93FC01EE0FFF1FEE0FFF1FEE0FFF1F78
:10293000E81BF90BE85FF34E20812E7F208314966D
:102940001C921497019617968436910539F70895CD
:102950000F931F93CF93DF93E9E0FCE120E030E099
:10296000062F10E04081518148175907B1F4D90171
:10297000AA0FBB1FAA0FBB1FAA0FBB1FA21BB30B23
:10298000A85FB34E4C9146954170C42F40E0D42FC0
:10299000C017D10711F4CD0108C02F5F3F4F379604
:1029A00024363105F9F680E090E0DF91CF911F9158
:1029B0000F910895A0E0B0E0E8E0FCE1808180FDA7
:1029C0000DC08581882381F0109739F015969C9170
:1029D0001597891718F4DF0101C0DF0137968EE1E2
:1029E000E43CF80759F7FD0180818D708063808396
:1029F00080E88583CF010895FC01808180FD05C0BA
:102A00008FEF9FEF9283818315820895A1DF009756
:102A100021F0FC018381948108958FEF9FEF089549
:102A200097DF009709F0E8CF08950F931F93CF9396
:102A3000DF93FC010185128511232CF48585968591
:102A400008171907E1F5858196810196C1F1EF011B
:102A500060E0858596857CDFFC01892BA1F08F8164
:102A600098850196F9F42091A71F3091A81F8F85B2
:102A7000988928173907B1F41483038380818F70F4
:102A8000806380830AC096DFFC018D859E859283DA
:102A9000818389859A8594838383CD57DF4F88818D
:102AA00086830DC08381948108171907B1F396813D
:102AB000DE01AD57BF4F8C919817F0F2EECFDF914A
:102AC000CF911F910F910895CF93DF93FC018785DC
:102AD00090898F3F2FEF9207D9F1EF01638563FB58
:102AE000662760F935DFDC01892B91F18C9180FD3F
:102AF0002FC0FE01ED57FF4F8081811119C08C91CD
:102B00008F7080638C9315968C9115978F5F1596B7
:102B10008C938F3FE9F4EDE0FCE129EC3EE180810C
:102B200086958F5F80833796E217F307C1F710C051
:102B30009C91892F82958F70815F8F70282F2295AD
:102B4000207F9F70922B9C93811102C0CD0154DF96
:102B5000DF91CF910895CF93DF93FC018785908912
:102B60008F3F2FEF920729F48FEF9FEF9087878396
:102B70000EC0238522FF03C09087878308C0EF0122
:102B8000638563FB662760F941DF98878F83DF9158
:102B9000CF910895AF92BF92CF92DF92EF92FF92C2
:102BA0001F93CF93DF93EC011B8513FB112710F9C3
:102BB000CF84D888612FC60129DF019659F0FE0124
:102BC000E957FF4F11821082319782E08083CE0156
:102BD0006ED322C0AD84BE841FDE7C010097D1F08D
:102BE00083DEF70181818A5F8183E957FF4F11827C
:102BF0001082F701B08AA786EF57FF4F0190F0814E
:102C0000E02D81E08083B282A182D482C3821583C9
:102C1000C7014DD3CE0139DEDF91CF911F91FF90D7
:102C2000EF90DF90CF90BF90AF900895FC01218589
:102C3000263049F40780F085E02D658183819481F9
:102C4000EFDE81E0089580E00895DC0119962C9173
:102C50001997222371F01796ED91FC911897208116
:102C6000222319F0213019F006C0B2C30895DECF37
:102C7000089580E0089580E00895BC01E6EDFEE14E
:102C800028E03FE140E051E09081992319F0915014
:102C90009083452F3596E217F307B1F7442311F0DF
:102CA000CB0130C60895E6EDFEE188E09FE1108299
:102CB0003596E817F907D9F7E4ECFEE184E690E0F1
:102CC000A0E0B0E086839783A087B18712868DE36A
:102CD00096E19487838765E276E180E096CC08955B
:102CE000CF93DF93DC01ED91FC911197218128387E
:102CF000F1F420812F7D2134D1F412962C912031D2
:102D0000B0F0EC0189DD009791F020E2FC01208316
:102D10002A8121832B81ED57FF4F20832C8131960F
:102D200020834A8150E0688179810296FFD6DF9145
:102D3000CF9108952F923F924F925F926F927F9220
:102D40008F929F92AF92BF92CF92DF92EF92FF92BB
:102D50000F931F93CF93DF93CDB7DEB72C970FB6AA
:102D6000F894DEBF0FBECDBF00E010E00F2EF4E2FE
:102D7000BF2EF02D0F2EF7EAEF2EFFE1FF2EF02DE4
:102D8000552453946894AA24A4F86894772473F87B
:102D90006894662462F8312C212C0F2EFFE14F2E0F
:102DA000F02DCC24C394D12CDAC1D8018C9182327D
:102DB00009F405C118F4803241F0D1C1833209F41D
:102DC000C9C1843209F4C9C1CAC1F801B08283857E
:102DD000982F9A7009F0C3C1258136812F3F3F4F4C
:102DE00091F4D8011F968D919C915097F701208105
:102DF00031812817390719F0019609F0B0C1E2E2D4
:102E0000D801EC93ACC1D8011F962D913C915097FD
:102E10002F3F3F4F11F480FDA2C1F7012081318186
:102E2000D8011D968D919C911E972817390709F49A
:102E300096C1C801FADDE2EDFEE180E090E0832C6E
:102E4000922C9C014481442309F474C0D8011D963E
:102E50006D917C911E97408151816417750709F02F
:102E60006AC01C968C911C97F901EE0FFF1FEE0FA4
:102E7000FF1FE20FF31FEE52F14E9281981B983024
:102E800008F03EC0F901EE0FFF1FEE0FFF1FE20F2B
:102E9000F31FEE52F14E8381482F50E0092E02C0FD
:102EA000559547950A94E2F740FF17C0F701208136
:102EB000318117968D919C9118972817390709F041
:102EC0004EC11B966C911B9763FB662760F91F969A
:102ED0008D919C915097A4DD42C1F901EE0FFF1F27
:102EE000EE0FFF1F2E0F3F1FF901EE52F14E96011C
:102EF00002C0220F331F9A95E2F7822B838336C1DB
:102F0000F901EE0FFF1FEE0FFF1F2E0F3F1FF901FC
:102F1000EE52F14E82838381282F30E09195A901F2
:102F200002C0440F551F9A95E2F7CA01816083835E
:102F300044821CC14F01019635968A30910509F0F3
:102F400080CF8114910409F40AC1D8011D968D9196
:102F50009C911E97F401918380831C968C918283AF
:102F60005382448284EC9EE1CDD400C1D7012D91DF
:102F70003C91F801878590892817390781F04385AE
:102F800042FD0BC0C801E1D1D7012D913C91F80160
:102F9000878590892817390711F0019621F4E2E21C
:102FA000D801EC93DCC0D80117968D919C911897AD
:102FB0008217930709F0D3C0E3E2EC93D0C01092DC
:102FC000D11ED80151968C91519782958F70E82F20
:102FD000F0E0EE0FFF1FE355F04E0190F081E02D81
:102FE000309709F460C01D962D913C911E973A834D
:102FF00029831F964D915C9150975C834B8351962A
:103000009C9151979F709D838E83AF57BF4F8D9139
:103010009C9199878887B8016E5F7F4F861B970BBD
:10302000D80111969C911197981B9A87AD57BF4F65
:103030008C918B8711968C918C87D8011B969C91D3
:10304000692F637092FD02C080E001C080E2862B90
:1030500093FD02C090E001C090E4892B4F3F5F4F89
:1030600011F090E001C0962D892BD80119964D9151
:103070005C911A972417350711F090E001C0972D45
:10308000892B8F83D80115962D913C9116972F3F50
:103090003F4F11F090E001C09A2D892B8F83CE0114
:1030A0000196199501C080E0F801938590FF80E0BA
:1030B000D80117962D913C9118972F3F3F4F69F4F7
:1030C000F70140815181D8011F962D913C91509775
:1030D0004217530711F493FF852DF801258136819E
:1030E0002F3F3F4FA1F1D7012D913C912F3F3F4FF3
:1030F00071F1882361F190DB4C01009741F1F4DB21
:10310000F40181818D5F8183E957FF4F1182108225
:10311000D8011B968C911B9786958170F40193853D
:1031200080FB91F993871D968D919C911E97908BB2
:103130008787EF57FF4F0190F081E02D108280913B
:10314000D11E82831C968C918183C401B0D0D8019A
:10315000BC9205C0C8011EDD02C0C80196DBC801D3
:103160009EDB8C01892B09F020CE07C0F8018781F6
:103170009085019609F008CFF9CE2C960FB6F894F9
:10318000DEBF0FBECDBFDF91CF911F910F91FF909A
:10319000EF90DF90CF90BF90AF909F908F907F90F7
:1031A0006F905F904F903F902F900895EF92FF9215
:1031B0000F931F93CF937C0110E080E090E001E03B
:1031C000C3E113C0FC012081213179F4EC57FF4F9A
:1031D000208131812150310931832083232B21F437
:1031E000FC01C083102F01C0102F59DB009751F74D
:1031F000112311F0C70186D3CF911F910F91FF903A
:10320000EF900895EF92FF920F931F93CF93DF9368
:103210007C0110E080E090E001E0D7E1C0E116C061
:10322000FC012081263191F4EC57FF4F2081318140
:103230002150310931832083232B39F4FC01D083C1
:10324000ED57FF4FC083102F01C0102F28DB0097D0
:1032500039F7112311F0C70155D3DF91CF911F9199
:103260000F91FF90EF90089510921F1F10921E1F54
:10327000E1E1FFE182E390E0A0E0B0E086839783A4
:10328000A087B187128682E099E194878387E4E082
:10329000FFE18AE090E0A0E0B0E086839783A0871A
:1032A000B187128686ED98E1948783870895CF933E
:1032B000DF93EC01FC01EA57FF4F808181FF03C0DF
:1032C00092E1988302C092E19883FE01ED57FF4F8F
:1032D000108280FF05C02FEF3FEF3E832D8306C095
:1032E0002091A91F3091AA1F3E832D83857019F468
:1032F000CE0131DC04C08F85988998878F83E7EAF7
:10330000FFE1808191819A87898785818F5F85839D
:103310008C838F819885019669F481E498E89B837A
:103320008A83F6D3CC57DF4F87709927019699830C
:10333000888308C081E698E89B838A83CC57DF4F57
:1033400019821882DF91CF9108950F931F93CF9325
:10335000DF938C0161DAEC01892BA9F182E188838A
:10336000F80181818983FE01ED57FF4F1082D0D390
:10337000FE01EC57FF4F8770992701969183808358
:10338000339611821082F801418150E0B8016E5FDE
:103390007F4FCE010296CAD381E498E89B838A834B
:1033A0008FEF9FEF98878F83F801858196819E83A9
:1033B0008D83E7EAFFE1808191819A878987858102
:1033C0008F5F85838C83DF91CF911F910F9108953B
:1033D000CF93DF93FC0121852330D9F410C0FC0189
:1033E0002081263189F43485298132130DC027E1EB
:1033F00020832A81EA57FF4F208381E00BC0FC0124
:10340000C781D08580E090E04ADA009741F780E0FC
:1034100001C080E0DF91CF910895E0911E1FF091EF
:103420001F1F813021F048F0823019F004C080E283
:1034300005C081E203C081E001C080E0DF01AD573B
:10344000BF4F8C9385E1808310921F1F10921E1F27
:10345000E7EAFFE186A197A1019797A386A30895C4
:103460009F92AF92BF92CF92DF92EF92FF920F9313
:103470001F93CF93DF93C0E0D0E00F2EF4E1AF2E87
:10348000F02D07EA1FE10F2EF7E1DF2EF02D0F2EB2
:10349000F6E19F2EF02D0F2EF9E2EF2EF12CF02DFC
:1034A0000F2EF3E1CF2EF02D0F2EF1E1BF2EF02DD8
:1034B00060C088818331C1F018F4823139F059C07D
:1034C000853149F1873109F445C053C0FE01EC57FD
:1034D000FF4F80819181892B29F0B88284E09FE1A0
:1034E00011D247C0C88245C080911E1F90911F1FF6
:1034F000892B09F03EC0D0931F1FC0931E1FA882C6
:103500006981CE010296CBD0F80186A197A10196E0
:1035100097A386A32EC0FE01ED57FF4F8081811136
:1035200017C02D853E85F8018081918128173907C4
:1035300069F48B8580FF0AC09882FE01EC57FF4F2B
:10354000F182E08281E19FE1DDD113C0D88211C018
:10355000D8820FC0CE01B8DAFE01E957FF4F0190C3
:10356000F081E02D309719F4CE018FD902C0CE0141
:103570001995CE0194D9EC01892B09F09ACFDF91EE
:10358000CF911F910F91FF90EF90DF90CF90BF9060
:10359000AF909F9008958091201F982F9F70E4E531
:1035A000F1E08081807F892B80838091201F882398
:1035B00029F08091211F8093530108958091211F4C
:1035C000982F9F71E8E4F1E08081807E892B8083D1
:1035D000089593E090934201E1E4F1E090819F71BE
:1035E0009830E1F780934201E1E4F1E090819F712E
:1035F0008913FCCF089588E0ECDF8FEF80934F01B3
:103600008091221F882311F086E1E3CF0895E9E33A
:10361000F1E08081816080831092221F1092201F30
:1036200081E08093A31F88E0D4DF8BEE8093560166
:10363000ECE4F1E080818068808308958093221F0C
:10364000DACF08958093211FA6CF0895CF93DF93FB
:103650001F921F92CDB7DEB79A8389838093620150
:103660008A81809363010F900F90DF91CF9108952D
:10367000CF93DF931F921F92CDB7DEB79A838983D2
:10368000809360018A818093610199818A81890F89
:1036900080936D010F900F90DF91CF9108951F934C
:1036A000CF93DF93182FD92FC62F89E192DF8FEFA9
:1036B00080934F0182E08C0F80938001CC2371F0C6
:1036C000A12FBD2FC1506C2F70E06E577E4FE1E8E7
:1036D000F1E08D918193E617F707D9F783E08093A6
:1036E000A31F82E080934201DF91CF911F91089543
:1036F0001F93CF93DF9300D01F921F92CDB7DEB7F9
:103700008091A31F823009F465C080914F0183FF2F
:103710003EC0A0917B016A2F70E0AB014F5F5F4F0D
:1037200080E090E020E0FC01E058FE4F3081FC0199
:10373000ED5DF04E30832F5F822F90E08417950768
:1037400094F383E29FE19A838983A250AB83FB01C8
:10375000ED5DF04E80818C83809147018A558D8389
:10376000CE010196BDDAE1E4F1E080818F7186310E
:10377000E1F7EFE4F1E0808188608083ECE4F1E040
:1037800080818F77808380818068808323C080914F
:103790004F0186FF1FC0809141018F718931A9F4CB
:1037A0001091420112951695177049F0133021F0CF
:1037B000153021F013E003C011E001C012E01BDF5F
:1037C00081E08093A31F812F28DEEFE4F1E0808168
:1037D000806480830F900F900F900F900F90DF9177
:1037E000CF911F9108950E943F116DD010DF0C946E
:1037F000E01208957DDF0E940E138FC008950F938D
:103800001F93CF93DF93EC018091A41F9091A51F8C
:10381000009709F445C04E815F8168857985FC0178
:103820000281138124813581401751076207730794
:1038300060F0DC0117C002811381248135814017BB
:1038400051076207730768F403C0FC01A0E0B0E011
:10385000041B150B260B370B02831383248335833C
:103860000AC0DF01401B510B620B730BED91FC9101
:103870001197309701F74A835B836C837D831097A0
:1038800041F08D919C91119799838883CD93DC931E
:1038900015C099838883D093A51FC093A41F0EC021
:1038A000198218828E819F81A885B9858A839B831E
:1038B000AC83BD83D093A51FC093A41FDF91CF918C
:1038C0001F910F9108951092A51F1092A41F0895A3
:1038D000E091A41FF091A51F309771F0E817F90748
:1038E00021F40CC08E179F0759F00190F081E02D54
:1038F0003097C1F780E0089580E0089581E0089551
:1039000081E00895CF93DF93EC01E2DF811102C0E3
:10391000CE0175DFDF91CF910895CF92DF92EF92C4
:10392000FF92CF93DF938091A61F882309F459C09B
:103930008FB7F894C090A61F1092A61F8FBFD12CEE
:10394000E12CF12CCC0CDD1CEE1CFF1CD701C601B8
:10395000880F991FAA1FBB1F880F991FAA1FBB1F83
:10396000C80ED91EEA1EFB1EC091A41FD091A51F30
:103970002097B9F18A819B81AC81BD81C816D90697
:10398000EA06FB0610F1C81AD90AEA0AFB0A88817E
:1039900099819093A51F8093A41F8A85813011F48B
:1039A000CE012DDFEB85FC85CE011995C091A41FBA
:1039B000D091A51F2097A9F08A819B81AC81BD8100
:1039C000C816D906EA06FB06F0F68A819B81AC810F
:1039D000BD818C199D09AE09BF098A839B83AC8385
:1039E000BD83DF91CF91FF90EF90DF90CF9008954E
:1039F00097FB072E16F4009406D077FD08D02DD043
:103A000007FC05D03EF4909581959F4F08957095E1
:103A100061957F4F0895A1E21A2EAA1BBB1BFD01E1
:103A20000DC0AA1FBB1FEE1FFF1FA217B307E4079D
:103A3000F50720F0A21BB30BE40BF50B661F771FF5
:103A4000881F991F1A9469F76095709580959095D5
:103A50009B01AC01BD01CF010895AA1BBB1B51E125
:103A600007C0AA1FBB1FA617B70710F0A61BB70BEE
:103A7000881F991F5A95A9F780959095BC01CD0193
:103A800008958F929F92AF92BF92CF92DF92EF9262
:103A9000FF92CF93DF93EC01688179818A819B81CA
:103AA000611571058105910521F464E279ED8BE5DD
:103AB00097E02DE133EF41E050E040D349015A0156
:103AC0009B01AC01A7EAB1E455D36B017C01ACEEDC
:103AD000B4EFA50194015AD3DC01CB018C0D9D1DDF
:103AE000AE1DBF1DB7FF03C00197A109B048888371
:103AF0009983AA83BB839F77DF91CF91FF90EF904B
:103B0000DF90CF90BF90AF909F908F900895B9CFE6
:103B100080E092E0B6CFA0E0B0E080930002909306
:103B20000102A0930202B09303020895FB01DC019D
:103B300002C001900D9241505040D8F708950F9364
:103B40001F93CF93DF93CDB7DEB72E970FB6F894C0
:103B5000DEBF0FBECDBF0E891F89888D998D26E0EF
:103B60002C831A83098397FF02C080E090E80197B5
:103B70009E838D83AE01445E5F4F6A8D7B8DCE0147
:103B8000019619D04D815E8157FD0AC02F8138857D
:103B9000421753070CF49A01F801E20FF31F108249
:103BA0002E960FB6F894DEBF0FBECDBFDF91CF913A
:103BB0001F910F9108952F923F924F925F926F92B3
:103BC0007F928F929F92AF92BF92CF92DF92EF92AD
:103BD000FF920F931F93CF93DF93CDB7DEB72B9751
:103BE0000FB6F894DEBF0FBECDBF6C017B018A011A
:103BF000FC0117821682838181FFBFC1CE0101962D
:103C00003C01F6019381F70193FD859193FF81912A
:103C10007F01882309F4ADC1853239F493FD859184
:103C200093FF81917F01853221F4B60190E0D6D1D6
:103C3000E8CF912C212C312CFFE1F315D8F08B32F9
:103C400079F038F4803279F08332A1F4232D2061A9
:103C50001DC08D3261F0803369F4232D216016C0C0
:103C6000832D8260382EE32DE4603E2E2AC0F32D92
:103C7000F8601DC037FC2DC020ED280F2A3040F021
:103C80008E32B9F436FC75C1232D2064322E19C052
:103C900036FE06C08AE0989E200D1124922E11C097
:103CA000EAE02E9E200D1124222EF32DF0623F2EED
:103CB00008C08C3621F4832D8068382E02C08836E7
:103CC00041F4F70193FD859193FF81917F0181116B
:103CD000B3CF982F9F7D9554933028F40C5F1F4FDE
:103CE0009FE399830DC0833631F0833771F08335BC
:103CF00009F055C020C0F801808189830E5F1F4FF5
:103D000088248394912C530112C02801F2E04F0EB5
:103D1000511CF801A080B18036FE03C0692D70E00F
:103D200002C06FEF7FEFC5014ED14C018201F32D30
:103D3000FF773F2E15C0280122E0420E511CF801EA
:103D4000A080B18036FE03C0692D70E002C06FEF25
:103D50007FEFC5012DD14C01F32DF0683F2E82017C
:103D600033FC19C0822D90E088169906A0F4B601A4
:103D700080E290E033D12A94F5CFF50137FC8591AC
:103D800037FE81915F01B60190E028D121102A947D
:103D900021E0821A91088114910479F7E1C08436F8
:103DA00011F0893639F5F80137FE07C0608171815D
:103DB000828193810C5F1F4F08C060817181072E43
:103DC000000C880B990B0E5F1F4FF32DFF763F2ED3
:103DD00097FF09C090958095709561957F4F8F4FA3
:103DE0009F4FF0683F2E2AE030E0A30133D1882EA8
:103DF000861844C0853731F4232D2F7EB22E2AE059
:103E000030E025C0932D997FB92E8F36C1F018F47C
:103E1000883579F0AEC0803719F0883721F0A9C015
:103E2000E92FE061BE2EB4FE0DC0FB2DF460BF2E65
:103E300009C034FE0AC0292F2660B22E06C028E031
:103E400030E005C020E130E002C020E132E0F801BE
:103E5000B7FE07C060817181828193810C5F1F4F23
:103E600006C06081718180E090E00E5F1F4FA3016A
:103E7000F1D0882E8618FB2DFF773F2E36FE0DC021
:103E8000232D2E7FA22E891458F434FE0BC032FC51
:103E900009C0832D8E7EA82E05C0B82CA32C03C08C
:103EA000B82C01C0B92CA4FE0FC0FE01E80DF11D15
:103EB0008081803321F49A2D997EA92E09C0A2FE1B
:103EC00006C0B394B39404C08A2D867809F0B394E5
:103ED000A3FC10C0A0FE06C0B21480F4280C922CE3
:103EE0009B180DC0B21458F4B60180E290E076D071
:103EF000B394F8CFB21418F42B1802C0982C212CCC
:103F0000A4FE0FC0B60180E390E068D0A2FE16C008
:103F1000A1FC03C088E790E002C088E590E0B6010C
:103F20000CC08A2D867851F0A1FE02C08BE201C040
:103F300080E2A7FC8DE2B60190E050D0891430F405
:103F4000B60180E390E04AD09A94F8CF8A94F301C6
:103F5000E80DF11D8081B60190E040D08110F6CFD0
:103F6000222009F44ECEB60180E290E037D02A94A8
:103F7000F7CFF6018681978102C08FEF9FEF2B96D6
:103F80000FB6F894DEBF0FBECDBFDF91CF911F916A
:103F90000F91FF90EF90DF90CF90BF90AF909F90E8
:103FA0008F907F906F905F904F903F902F900895EB
:103FB000FC010590615070400110D8F780959095F4
:103FC0008E0F9F1F0895FC016150704001900110F9
:103FD000D8F7809590958E0F9F1F08950F931F938C
:103FE000CF93DF93FB01238121FD03C08FEF9FEF70
:103FF0002CC022FF16C0468157812481358142178B
:10400000530744F4A081B1819D012F5F3F4F31835D
:1040100020838C93268137812F5F3F4F3783268300
:1040200014C08B01EC01FB010084F185E02D199592
:10403000892BE1F6D80116968D919C9117970196E0
:1040400017969C938E931697CE01DF91CF911F9177
:104050000F910895FA01AA27283051F1203181F1FA
:10406000E8946F936E7F6E5F7F4F8F4F9F4FAF4F80
:10407000B1E03ED0B4E03CD0670F781F891F9A1F93
:10408000A11D680F791F8A1F911DA11D6A0F711D47
:10409000811D911DA11D20D009F468943F912AE053
:1040A000269F11243019305D3193DEF6CF0108953B
:1040B000462F4770405D4193B3E00FD0C9F7F6CF6C
:1040C000462F4F70405D4A3318F0495D31FD405234
:1040D000419302D0A9F7EACFB4E0A69597958795CA
:1040E00077956795BA95C9F70097610571050895A9
:1040F0009B01AC010A2E0694579547953795279555
:10410000BA95C9F7620F731F841F951FA01D0895EC
:10411000F999FECF92BD81BDF89A992780B508958F
:10412000262FF999FECF1FBA92BD81BD20BD0FB6D3
:10413000F894FA9AF99A0FBE01960895052E97FB06
:1041400016F400940FD057FD05D065DC07FC02D0B3
:1041500046F408C050954095309521953F4F4F4FFC
:104160005F4F089590958095709561957F4F8F4F23
:104170009F4F08950FD0A59F900DB49F900DA49FC1
:10418000800D911D11240895B7FFF4CFF3DF821B3A
:10419000930B0895A29FB001B39FC001A39F700D20
:1041A000811D1124911DB29F700D811D1124911D3F
:0641B0000895F894FFCF12
:1041B600010000000D0A2D2D2D2D2D204375727244
:1041C600656E74204F7065726174696E67204D6FFD
:1041D6006465202D2D2D2D2D0D0A004D6F64653A39
:1041E6002053454E444552202D205468697320645F
:1041F60065766963652077696C6C2073656E6420EB
:104206006D657373616765730D0A00456E7465723B
:10421600206D65737361676520746F20656E6372C8
:104226007970743A20004D6F64653A204C495354B6
:10423600454E4552202D2054686973206465766981
:1042460063652069732077616974696E6720666F9C
:1042560072206D657373616765730D0A004D6F6437
:10426600653A20554E444546494E45440D0A000DD3
:104276000A456E746572206D657373616765207497
:104286006F20656E637279707420286F7220274DD7
:104296002720746F206368616E6765206D6F6465A3
:1042A600293A20000A53656C656374206F70657245
:1042B6006174696E67206D6F64653A000A0D20317E
:1042C600292053656E646572200A000A0D20322982
:1042D600204C697374656E6572200A002530325869
:1042E60000657870616E642033322D6279746520C2
:1042F6006B00657870616E642031362D6279746565
:10430600206B005B4552524F525D2043616E6E6FCB
:10431600742073656E642064617461202D2050538F
:104326004B206E6F742076616C6964210D0A005B08
:10433600454E43525950545D2043757272656E74F2
:10434600206E6F6E63653A20005B454E43525950AE
:10435600545D20436970686572746578743A20000C
:104366000D0A4D6F64652073657420746F20534584
:104376004E4445522077697468206164647265739F
:104386007320310D0A000D0A4D6F64652073657444
:1043960020746F204C495354454E4552207769741A
:1043A60068206164647265737320300D0A000D0A1B
:1043B600496E76616C69642063686F6963652E2057
:1043C600506C6561736520656E7465722031206F6F
:1043D6007220323A20000D0A4368616E67696E6783
:1043E600206F7065726174696E67206D6F64652EEB
:1043F6002E2E0D0A005B4552524F525D2043616ED0
:104406006E6F742064656372797074206461746180
:10441600202D2050534B206E6F742076616C69649A
:10442600210D0A005B4552524F525D20526563656D
:1044360069766564206461746120746F6F207368A7
:104446006F7274202D206D697373696E67206E6FAD
:104456006E6365210D0A005B444543525950545D15
:10446600205265636569766564206D65737361675F
:10447600652077697468206E6F6E63653A20005B0D
:10448600444543525950545D2043697068657274BF
:104496006578743A20005B444543525950545D2078
:1044A60044656372797074656420706C61696E74BA
:1044B6006578743A20000D0A5B4D455353414745D4
:1044C6002052454345495645445D20000D0A4C6936
:1044D6007374656E696E6720666F72206D6573739F
:1044E600616765732E2E2E20285072657373202700
:1044F6004D2720746F206368616E6765206D6F6459
:1045060065290D0A005B4E4F4E43455D205570648C
:104516006174696E67206C6F63616C206E6F6E6389
:104526006520746F206D61746368207265636569C8
:10453600766564206E6F6E63650D0A000D0A2D2D7B
:104546002D2D2D204C574D5F4D53535920776974AF
:10455600682053616C736132302045324520456EC8
:104566006372797074696F6E202D2D2D2D2D0D0AB5
:10457600004465627567206D6F64653A2000496E78
:10458600697469616C697A696E672E2E2E0D0A0050
:104596005B50534B5D204D6167696320627974659A
:1045A600202872656164293A20005B50534B5D20D8
:1045B6004D61676963206279746520766572696604
:1045C60069636174696F6E206661696C6564210D4B
:1045D6000A005B50534B5D20496E697469616C69D2
:1045E6007A6564206B65793A20005B50534B5D20F9
:1045F6004C6F61646564206B65793A20005B5053AB
:104606004B5D2043616C63756C61746564206368FF
:1046160065636B73756D3A20005B50534B5D205399
:10462600746F72656420636865636B73756D3A2099
:10463600005B50534B5D204552524F523A2043681F
:1046460065636B73756D20766572696669636174FF
:10465600696F6E206661696C6564210D0A005B50A6
:10466600534B5D2050534B206C6F6164656420731F
:1046760075636365737366756C6C79210D0A005BEF
:1046860050534B5D2046697865642050534B207328
:10469600746F726564207375636365737366756C96
:1046A6006C7920746F20454550524F4D210D0A00FC
:1046B6005B50534B5D2050534B20696E69746961A2
:1046C6006C697A6174696F6E207375636365737361
:1046D60066756C210D0A000D0A5B494E49545D2032
:1046E6005374617274696E67206170706C6963617E
:1046F60074696F6E2E2E2E0D0A000D0A5B455252FE
:104706004F525D204F7065726174696E67206D6FE0
:10471600646520756E646566696E6564210D0A00C0
:104726000D0A5B4552524F525D20496E76616C69A7
:1047360064206170705374617465210D0A00A7F1DD
:10474600D92A82C8D8FE434D98558CE2B347171133
:0E47560098542F112D0558F56BD688079992AF
:00000001FF
