:1000000099C00000AEC00000ACC00000AAC0000053
:10001000A8C00000A6C00000A4C00000A2C000004C
:10002000A0C000009EC000009CC000009AC000005C
:1000300098C0000096C0000094C0000092C000006C
:1000400090C000008EC000008CC000008AC000007C
:1000500088C0000086C0000084C0000082C000008C
:1000600080C000007EC000007CC000007AC000009C
:1000700078C0000076C0000074C0000072C00000AC
:1000800070C000006EC000006CC000006AC00000BC
:10009000B0C0000066C0000064C0000062C0000084
:1000A00060C000005EC000005CC000005AC00000DC
:1000B00058C0000056C0000054C0000052C00000EC
:1000C00050C000004EC000004CC000004AC00000FC
:1000D00048C0000046C0000044C0000042C000000C
:1000E00040C000003EC000003CC000003AC000001C
:1000F00038C0000036C0000034C0000032C000002C
:1001000030C000002EC000002CC000002AC000003B
:1001100028C0000026C0000024C0000022C000004B
:1001200020C000001EC000001CC000001AC000005B
:1001300018C0000011241FBECFEFD1E8DEBFCDBF35
:1001400000E00CBF12E0A0E0B2E0EEE6F3E000E079
:100150000BBF02C007900D92AC3DB107D9F7A5D0F7
:1001600004C14ECF8091C8008823E4F78091CE006F
:10017000089584B1806284B920E030E01AC085B16E
:10018000806285B94FE986E891E041508040904017
:10019000E1F700C0000085B18F7D85B94FE986E8A1
:1001A00091E0415080409040E1F700C000002F5F97
:1001B0003F4F233031051CF308959C0140E050E08F
:1001C00060E271EA87E090E0AED0215031093093CF
:1001D000CD002093CC0086E08093CA0088E1809314
:1001E000C90008959091C80095FFFCCF8093CE0080
:1001F00008951F920F920FB60F9211240BB60F9213
:100200002F933F934F935F936F937F938F939F931E
:10021000AF93BF93EF93FF938091CE00E3DFFF9105
:10022000EF91BF91AF919F918F917F916F915F916E
:100230004F913F912F910F900BBE0F900FBE0F90DB
:100240001F901895CF93DF93EC0102C0CBDF21966E
:1002500088818111FBCFDF91CF91089580E092E0FA
:10026000F1DF85E092E0EECF089589E092E0EACFF9
:1002700008958FE092E0E6CF0895F7DF81E992E0FC
:10028000E1DF84E192E0DEDF8CE192E0DBDF86E219
:1002900092E0D8DF84E492E0D5DF82E692E0D2DF1C
:1002A00089E792E0CFDFE5CF0895CF9380E096E92C
:1002B00084DFD4DFE2DF56DF803361F1813371F414
:1002C000CDDFD3DFC1E603C08C2F8CDFCF5FCB3710
:1002D000D8F386EA92E0B6DFCCDF1AC0823371F43D
:1002E000BDDFC3DFC1E403C08C2F7CDFCF5FCB3524
:1002F000D8F386EA92E0A6DFBCDF0AC0833319F4A4
:10030000ADDF37DF05C0B1DF88EA92E09BDFB1DF08
:10031000B4DFD1CFAADF84E992E094DFAADF80E0E6
:1003200090E0CF910895A1E21A2EAA1BBB1BFD01FC
:100330000DC0AA1FBB1FEE1FFF1FA217B307E407C4
:10034000F50720F0A21BB30BE40BF50B661F771F1C
:10035000881F991F1A9469F76095709580959095FC
:0E0360009B01AC01BD01CF010895F894FFCFC1
:10036E001B5B324A001B5B48001B5B33356D001B69
:10037E005B306D004D454E553A0A0D00302E20452E
:10038E007869740A0D00312E205072696E74206CDB
:10039E006F7765726361736520616C706861626509
:1003AE00740A0D00322E205072696E7420757070B2
:1003BE0065726361736520616C7068616265740A51
:1003CE000D00332E20426C696E6B204C4544203359
:1003DE002074696D65730A0D0043686F6F73652035
:1003EE00616E206F7074696F6E2028302D33293A3C
:1003FE00200A0D0045786974696E672070726F6708
:10040E0072616D2E2E2E0A00496E76616C69642023
:10041E0063686F6963652E20506C65617365206536
:10042E006E74657220612076616C756520626574EC
:0C043E007765656E20302D332E0A00001B
:00000001FF
