:1000000099C00000AEC00000ACC00000AAC0000053
:10001000A8C00000A6C00000A4C00000A2C000004C
:10002000A0C000009EC000009CC000009AC000005C
:1000300098C0000096C0000094C0000093C000006B
:1000400090C000008EC000008CC000008AC000007C
:1000500088C0000086C0000084C0000082C000008C
:1000600080C000007EC000007CC000007AC000009C
:1000700078C0000076C0000074C0000072C00000AC
:1000800070C000006EC000006CC000006AC00000BC
:1000900068C0000066C0000064C0000062C00000CC
:1000A00060C000005EC000005CC000005AC00000DC
:1000B00058C0000056C0000054C0000052C00000EC
:1000C00050C000004EC000004CC000004AC00000FC
:1000D00048C0000046C0000044C0000042C000000C
:1000E00040C000003EC000003CC000003AC000001C
:1000F00038C0000036C0000034C0000032C000002C
:1001000030C000002EC000002CC000002AC000003B
:1001100028C0000026C0000024C0000022C000004B
:1001200020C000001EC000001CC000001AC000005B
:1001300018C0000011241FBECFEFD1E8DEBFCDBF35
:1001400000E00CBF13E0A0E0B2E0E8E0F4E000E083
:100150000BBF02C007900D92A63AB107D9F7B4D0F1
:1001600051C14ECF1F920F920FB60F9211240F90D4
:100170000FBE0F901F901895CF93DF93F894E0EB8C
:10018000F0E01082C1EBD0E01882109270004FEFC7
:10019000489F9001499F300D11243695279536953B
:1001A0002795ABE7B4E11FD1969587958093B3006F
:1001B0008081836080838881876088838081806874
:1001C00080837894DF91CF9108959C0140E050E0C6
:1001D00060E271EA87E090E0E4D021503109309389
:1001E000CD002093CC0086E08093CA0088E1809304
:1001F000C90008959091C80095FFFCCF8093CE0070
:100200000895CF93DF93EC0102C0F4DF219688813B
:100210008111FBCFDF91CF91089581E092E0F1DF72
:100220008AE092E0EEDF84E192E0EBDF82E392E0AD
:10023000E8DF80E592E0E5DF87E692E0E2DF8DE748
:1002400092E0DFDF8DE892E0DCDF85EA92E0D9CF53
:1002500008958AEB92E0D5DF8EEC92E0D2DF80EF5A
:1002600092E0CFDF82E193E0CCDF85EA92E0C9CF74
:1002700008958091C8008823E4F78091CE00089506
:1002800084B1806184B920E030E01AC085B180611A
:1002900085B94FE986E891E0415080409040E1F710
:1002A00000C0000085B18F7E85B94FE986E891E0F6
:1002B000415080409040E1F700C000002F5F3F4F69
:1002C000233031051CF30895CF9380E096E97DDF5C
:1002D00084B1806184B9A1DFCCDF803309F45AC0D6
:1002E000813361F404C08C2F85DFCF5F01C0C1E68C
:1002F000CB37C8F388EB92E084DF4AC0823361F4E5
:1003000004C08C2F77DFCF5F01C0C1E4CB35C8F3C9
:1003100088EB92E076DF3CC0833311F4B1DF38C064
:10032000843321F483E393E06CDF32C0853321F41E
:100330008BE493E066DF2CC0863339F58ADF99DFE2
:100340008B3259F4809100028436C8F4865F809322
:1003500000028EE593E055DF12C08D3259F4809192
:100360000002882361F08A508093000284E793E0C2
:1003700048DF05C0813761F08AE893E042DF809171
:10038000000290E0F9DE65DFDACF8AE893E039DF3A
:1003900044DFA2CF87E293E034DF80E090E0CF91AA
:1003A0000895A1E21A2EAA1BBB1BFD010DC0AA1FB6
:1003B000BB1FEE1FFF1FA217B307E407F50720F0CE
:1003C000A21BB30BE40BF50B661F771F881F991F49
:1003D0001A9469F760957095809590959B01AC0192
:1003E000BD01CF010895A29FB001B39FC001A39F9B
:1003F000700D811D1124911DB29F700D811D11245E
:08040000911D0895F894FFCF4F
:10040800320D0A4D454E553A0A000D302E204578DA
:1004180069740A000D312E205072696E74206C6F59
:100428007765726361736520616C70686162657479
:100438000A000D322E205072696E74207570706536
:10044800726361736520616C7068616265740A002B
:100458000D332E20426C696E6B204C4544203320AE
:1004680074696D65730A000D342E205374617274BB
:100478002032487A205369676E616C0A000D352E68
:100488002053746F702054696D65720A000D362E02
:10049800204272696768746E65737320436F6E7467
:1004A800726F6C0A000D43686F6F736520616E2070
:1004B8006F7074696F6E3A200A000D0A427269679C
:1004C80068746E657373204D656E753A0A000D2069
:1004D800546F20696E637265617365204272696743
:1004E80068746E657373207072657373202B0A00CD
:1004F8000D20546F206465637265617365204272D4
:10050800696768746E657373207072657373202DE4
:100518000A000D204261636B20746F204D61696E83
:10052800204D656E750A0045786974696E672E2ED0
:100538002E0A005374617274696E672032487A20FB
:100548007369676E616C2E2E2E0A0053746F70707B
:10055800696E672054696D65722E2E2E0A004272EC
:10056800696768746E65737320496E637265617339
:1005780065640A004272696768746E657373204423
:1005880065637265617365640A00496E76616C69BA
:100598006420696E7075742C2074727920616761AB
:0605A800696E2E0A00003E
:00000001FF
