:100000001AC1000030C100002EC100002CC1000048
:100010002AC1000028C1000026C1000024C1000040
:1000200022C1000020C100001EC100001CC1000050
:100030001AC1000018C1000016C10000C2C10000B2
:1000400012C1000010C100000EC100000CC1000070
:100050000AC1000008C1000006C1000004C1000080
:1000600002C1000000C10000FEC00000FCC0000092
:10007000FAC00000F8C00000F6C00000F4C00000A4
:10008000F2C00000F0C00000EEC00000ECC00000B4
:10009000EAC00000E8C00000E6C00000E4C00000C4
:1000A000E2C00000E0C00000DEC00000DCC00000D4
:1000B000DAC00000D8C00000D6C00000D4C00000E4
:1000C000D2C00000D0C00000CEC00000CCC00000F4
:1000D000CAC00000C8C00000C6C00000C4C0000004
:1000E000C2C00000C0C00000BEC00000BCC0000014
:1000F000BAC00000B8C00000B6C00000B4C0000024
:10010000B2C00000B0C00000AEC00000ACC0000033
:10011000AAC00000A8C00000A6C00000A4C0000043
:10012000A2C00000A0C000009EC000009CC0000053
:100130009AC000006E616E00696E660000407A1021
:10014000F35A00A0724E18090010A5D4E80000E888
:100150007648170000E40B54020000CA9A3B0000E6
:1001600000E1F505000080969800000040420F0075
:100170000000A08601000000102700000000E80336
:10018000000000006400000000000A000000000001
:100190000100000000002C76D888DC674F0823DFC0
:1001A000C1DFAE59E1B1B796E5E3E453C63AE65193
:1001B000997696E8E6C28426EB898C9B62ED407CBA
:1001C0006FFCEFBC9C9F40F2BAA56FA5F490055A56
:1001D0002AF75C936B6CF9676DC11BFCE0E40D477B
:1001E000FEF520E6B500D0ED902E0300943577059E
:1001F0000080841E080000204E0A000000C80C3356
:100200003333330F986E12831141EF8D2114893BE4
:10021000E65516CFFEE6DB18D1844B381BF77C1D64
:10022000901DA4BBE424203284725E228100C9F1B7
:1002300024ECA1E53D2711241FBECFEFD1E8DEBF9E
:10024000CDBF00E00CBF14E0A0E0B2E0E6E4F4E1D2
:1002500000E00BBF02C007900D92AC3BB107D9F78D
:10026000B9D10C94210ACCCECF93DF9343D086E949
:100270004DD06AD0883119F081E092E0F1D080E071
:1002800045D062D0883219F08CE092E0E9D03AD0C3
:1002900031D05AD0883019F087E192E0E1D087E977
:1002A00035D052D0803419F082E292E0D9D038D0E3
:1002B000C82F4AD0803519F08DE292E0D1D03AD0E3
:1002C000D82F42D0883519F088E392E0C9D01AD0EF
:1002D0006C2F70E0762F66276D2B072E000C880B95
:1002E000990B05D220E030E040E85BE33BD2DF91A0
:1002F000CF91089584EA8093BC008091BC0088234C
:10030000E4F7089584E98093BC0008958093BB00CE
:1003100084E88093BC008091BC008823E4F70895B2
:1003200084EC8093BC008091BC008823E4F780912A
:10033000BB00089584E88093BC008091BC008823B2
:10034000E4F78091BB0008958091B900887F0895FB
:10035000ACE7B0E01C92EAE7F0E010829081892BD4
:1003600080838C9190E4699FB0011124682B6C9379
:1003700080818068808380917A008823E4F70895E3
:10038000ECE7F0E09081907E9083ABE7B0E09C9149
:10039000977F9C939081892B8083EAE7F0E08081AE
:1003A0008064808380917A0086FDFCCF2091780064
:1003B00030917900EAE7F0E0908190619083C90183
:1003C00008951F920F920FB60F9211240F900FBE37
:1003D0000F901F901895CF93DF93F894E0EBF0E027
:1003E0001082C1EBD0E01882109270004FEF489F4E
:1003F0009001499F300D1124369527953695279504
:10040000ABE7B4E10ED6969587958093B3008081D3
:10041000836080838881876088838081806880830F
:100420007894DF91CF9108959C0140E050E060E224
:1004300071EA87E090E0D3D5215031093093CD00A7
:100440002093CC0086E08093CA0088E18093C900A5
:1004500008959091C80095FFFCCF8093CE00089539
:10046000CF93DF93EC0102C0F4DF219688818111E4
:10047000FBCFDF91CF910895CF93DF93CDB7DEB758
:100480002A970FB6F894DEBF0FBECDBF83E078DFAA
:100490004AE050E0BE016F5F7F4FC0D683E492E038
:1004A000DFDFCE010196DCDF81E393E0D9DF2A961E
:1004B0000FB6F894DEBF0FBECDBFDF91CF91089588
:1004C00085E592E0CDDF8EE592E0CADF88E692E036
:1004D000C7DF86E892E0C4DF84EA92E0C1DF8BEBFD
:1004E00092E0BEDF81EE92E0BBDF81EF92E0B8DF09
:1004F00089E093E0B5DF8EE193E0B2CF089583E326
:1005000093E0AEDF87E493E0ABDF89E693E0A8DF1A
:100510008BE893E0A5DF8EE193E0A2CF0895809170
:10052000C8008823E4F78091CE00089584B18061EB
:1005300084B920E030E01AC085B1806185B94FE907
:1005400086E891E0415080409040E1F700C0000013
:1005500085B18F7E85B94FE986E891E041508040B2
:100560009040E1F700C000002F5F3F4F233031057E
:100570001CF308950F931F93CF93DF93CDB7DEB78E
:1005800064970FB6F894DEBF0FBECDBF6DDE9F93AC
:100590008F937F936F9380EA93E09F938F931F9243
:1005A00084E18F938E010F5F1F4F1F930F939FD690
:1005B000C80156DF0FB6F894DEBF0FBECDBF6496FC
:1005C0000FB6F894DEBF0FBECDBFDF91CF911F9164
:1005D0000F910895CF9380E096E926DF84B1806182
:1005E00084B961E087E0B4DE6BDF99DF803309F422
:1005F00075C0813361F404C08C2F2BDFCF5F01C045
:10060000C1E6CB37C8F381E393E02ADF65C08233CC
:1006100061F404C08C2F1DDFCF5F01C0C1E4CB3576
:10062000C8F381E393E01CDF57C0833311F47EDF0E
:1006300053C08433D9F481EC93E012DF85ED93E06D
:100640000FDF8BEE93E00CDF6ADF813321F484E06F
:1006500094E006DF41C0823329F48CE194E000DFAE
:100660000BDF3AC088E394E0FBDE36C0853321F42B
:1006700082E694E0F5DE30C0863339F540DF4FDFA7
:100680008B3259F4809100028436C8F4865F8093DF
:10069000000285E794E0E4DE12C08D3259F48091C7
:1006A0000002882361F08A50809300028BE894E076
:1006B000D7DE05C0813781F081EA94E0D1DE8091F8
:1006C000000290E088DE1BDFDACF873311F452DFBF
:1006D00003C081EA94E0C4DEF3DE87CF85EB93E0CC
:1006E000BFDE80E090E0CF910895E89409C097FBC9
:1006F0003EF490958095709561957F4F8F4F9F4FF9
:100700009923A9F0F92F96E9BB279395F69587953C
:1007100077956795B795F111F8CFFAF4BB0F11F4FF
:1007200060FF1BC06F5F7F4F8F4F9F4F16C08823A6
:1007300011F096E911C0772321F09EE8872F762FDC
:1007400005C0662371F096E8862F70E060E02AF01D
:100750009A95660F771F881FDAF7880F9695879509
:1007600097F908950BD078C069D028F06ED018F0B2
:10077000952309F05AC05FC01124A2C07ED0A0F317
:10078000959FD1F3950F50E0551F629FF001729F26
:10079000BB27F00DB11D639FAA27F00DB11DAA1F45
:1007A000649F6627B00DA11D661F829F2227B00D92
:1007B000A11D621F739FB00DA11D621F839FA00D1D
:1007C000611D221F749F3327A00D611D231F849F6D
:1007D000600D211D822F762F6A2F11249F575040C4
:1007E0008AF0E1F088234AF0EE0FFF1FBB1F661F5F
:1007F000771F881F91505040A9F79E3F510570F018
:1008000014C05EC05F3FECF3983EDCF386957795AD
:100810006795B795F795E7959F5FC1F7FE2B880F12
:10082000911D9695879597F9089597F99F6780E8A8
:1008300070E060E008959FEF80EC089500240A9432
:100840001616170618060906089500240A941216AB
:100850001306140605060895092E0394000C11F4DE
:10086000882352F0BB0F40F4BF2B11F460FF04C08B
:100870006F5F7F4F8F4F9F4F089557FD9058440FE4
:10088000551F59F05F3F71F04795880F97FB991FEF
:1008900061F09F3F79F087950895121613061406AC
:1008A000551FF2CF4695F1DF08C016161706180639
:1008B000991FF1CF86957105610508940895E89414
:1008C000BB2766277727CB0197F908952F923F9290
:1008D0004F925F926F927F928F929F92AF92BF9250
:1008E000CF92DF92EF92FF920F931F93CF93DF93FC
:1008F000CDB7DEB760970FB6F894DEBF0FBECDBFA1
:100900007C011B016A01FC0117821682838181FF31
:100910002AC39E012F5F3F4F3901F7019381F101F7
:1009200093FD859193FF81911F01882309F417C3DB
:10093000853239F493FD859193FF81911F018532B2
:1009400031F4B70190E097D456016501E6CF10E08D
:10095000512C912CFFE1F915D8F08B3279F038F455
:10096000803279F08332A1F4F92DF0612EC08D32FE
:1009700061F0803369F4292D21602DC0392D32605A
:10098000932E892D8460982E2AC0E92DE86015C029
:1009900097FC2DC020ED280F2A3088F496FE06C063
:1009A0003AE0139F200D1124122F19C08AE0589E9F
:1009B000200D1124522EE92DE0629E2E10C08E32A1
:1009C00031F496FCCCC2F92DF0649F2E08C08C3611
:1009D00021F4292D2068922E02C0883641F4F101BD
:1009E00093FD859193FF81911F018111B3CF9BEB03
:1009F000980F933020F4992D9061805E07C09BE999
:100A0000980F933008F059C1992D9F7E96FF16E0FC
:100A10009F73992E853619F49064992E08C08636F6
:100A200021F4392F3068932E02C01111115097FE16
:100A300007C01C3350F444244394410E27E00BC0FC
:100A4000183038F027E017E005C027E09CE3492E76
:100A500002C0212F412C560184E0A80EB11CF601E2
:100A60006081718182819381042DA301E9D26C019F
:100A7000F981FC87F0FF02C0F3FF06C091FC06C0BD
:100A800092FE06C000E205C00DE203C00BE201C009
:100A900000E08C858C7019F0011143C280C297FE72
:100AA00010C04C0CFC85F4FF04C08A81813309F42A
:100AB0004A94141474F528E0241578F588E0482E3B
:100AC0002CC096FC2AC0812F90E08C159D059CF0CF
:100AD0003CEFC3163FEFD30674F0892D8068982E43
:100AE0000AC0E2E0F0E0EC0FFD1FE10FF11D808194
:100AF000803319F411501111F4CF97FE0EC0442425
:100B00004394410E812F90E0C816D9062CF41C198D
:100B100004C04424439401C010E097FE06C01C1496
:100B20001D0434F4C601019605C085E090E002C0C2
:100B300081E090E001110196112331F0212F30E086
:100B40002F5F3F4F820F931F252D30E082179307B1
:100B500014F4581A01C0512C892D897041F4552084
:100B600031F0B70180E290E086D35A94F8CF0023A9
:100B700021F0B701802F90E07ED393FC08C0552070
:100B800031F0B70180E390E076D35A94F8CF97FE26
:100B90004AC04601D7FE02C0812C912CC60188199B
:100BA0009909F301E80FF91FFE87ED8796012419D3
:100BB0003109388B2F87012F10E01195019511090C
:100BC0003FEF8316930621F4B7018EE290E053D3F2
:100BD000C814D9044CF08F8598898815990524F498
:100BE000ED85FE85818101C080E3F1E08F1A9108D7
:100BF0002D853E852F5F3F4F3E872D8780169106BE
:100C000024F0B70190E037D3DBCFC814D90441F406
:100C10009A81963320F4953319F43C8534FF81E3AF
:100C2000B70190E048C08A81813319F09C859F7E8E
:100C30009C87B70190E01FD3111105C094FC16C02A
:100C400085E690E015C0B7018EE290E014D31E5FF8
:100C500082E001E0080FF301E80FF11D8081B70188
:100C600090E009D3802F0113F4CFE8CF85E490E022
:100C7000B70101D3D7FC06C0C114D10441F4EC85FF
:100C8000E4FF05C0D194C194D1088DE201C08BE28C
:100C9000B70190E0F0D280E32AE0C216D1042CF034
:100CA0008F5FFAE0CF1AD108F7CFB70190E0E3D217
:100CB000B701C601C096DFD249C1833631F0833710
:100CC00079F0833509F052C01FC0560132E0A30EFF
:100CD000B11CF6018081898301E010E0630111C03D
:100CE0005601F2E0AF0EB11CF601C080D18096FE35
:100CF00003C0612F70E002C06FEF7FEFC60183D2A7
:100D00008C01F92DFF7713C0560122E0A20EB11C11
:100D1000F601C080D18096FE03C0612F70E002C052
:100D20006FEF7FEFC60164D28C01F92DF0689F2E22
:100D3000F3FD18C0852D90E00817190798F4B70146
:100D400080E290E098D25A94F5CFF60197FC859115
:100D500097FE81916F01B70190E08DD251105A94A6
:100D6000015011090115110581F7F0C0843611F009
:100D7000893659F5560197FE09C024E0A20EB11C30
:100D8000F60160817181828193810AC0F2E0AF0E29
:100D9000B11CF60160817181072E000C880B990B44
:100DA000F92DFF769F2E97FF09C09095809570953D
:100DB00061957F4F8F4F9F4FF0689F2E2AE030E064
:100DC000A301D1D2C82EC6183EC0092D853721F403
:100DD0000F7E2AE030E01DC0097F8F3691F018F4B5
:100DE000883559F0BCC0803719F0883711F0B7C08A
:100DF000006104FF09C0046007C094FE08C00660DB
:100E000006C028E030E005C020E130E002C020E16B
:100E100032E0560107FF09C084E0A80EB11CF601BC
:100E2000608171818281938108C0F2E0AF0EB11CB4
:100E3000F6016081718180E090E0A30194D2C82E18
:100E4000C6180F77902E96FE0BC0092D0E7FC11687
:100E500050F494FE0AC092FC08C0092D0E7E05C015
:100E6000DC2C092D03C0DC2C01C0D12E04FF0DC0E9
:100E7000FE01EC0DF11D8081803311F4097E09C063
:100E800002FF06C0D394D39404C0802F867809F063
:100E9000D39403FD10C000FF06C01C2DD51478F4B8
:100EA000150D1D190CC0D51450F4B70180E290E067
:100EB000E2D1D394F8CFD51410F45D1801C0512CB1
:100EC00004FF0FC0B70180E390E0D5D102FF16C048
:100ED00001FD03C088E790E002C088E590E0B7011B
:100EE0000CC0802F867851F001FF02C08BE201C058
:100EF00080E207FD8DE2B70190E0BDD1C11630F46C
:100F0000B70180E390E0B7D11150F8CFCA94F30154
:100F1000EC0DF11D8081B70190E0ADD1C110F6CF8D
:100F200015C0F4E0F51550F584E0581A93FE1EC084
:100F3000011125C02C8523FF27C004E311E0392DC2
:100F40003071932EF8018491811121C0552009F44C
:100F5000FCCCB70180E290E08ED15A94F7CFF70134
:100F60008681978123C08FEF9FEF20C0B70180E279
:100F700090E081D15A945110F9CFDACF512CB701BA
:100F8000802F90E078D1D6CF08E311E0D8CF911030
:100F90008052B70190E06FD10F5F1F4FD3CF23E096
:100FA000251510F483E0C1CF512CC4CF60960FB645
:100FB000F894DEBF0FBECDBFDF91CF911F910F918F
:100FC000FF90EF90DF90CF90BF90AF909F908F9069
:100FD0007F906F905F904F903F902F900895A1E287
:100FE0001A2EAA1BBB1BFD010DC0AA1FBB1FEE1FA3
:100FF000FF1FA217B307E407F50720F0A21BB30BEE
:10100000E40BF50B661F771F881F991F1A9469F769
:1010100060957095809590959B01AC01BD01CF01C5
:101020000895A29FB001B39FC001A39F700D811DC1
:101030001124911DB29F700D811D1124911D0895E1
:10104000283008F027E03327DA01990F311D87FD9A
:10105000916000966105710539F432602E5F3D9311
:1010600030E32A95E1F708959F3F30F0803871050D
:10107000610509F03C5F3C5F3D93913008F080686A
:10108000911DDF93CF931F930F93FF92EF92192F30
:10109000987F9695E92F96959695E90FFF27EA5642
:1010A000FE4F99273327EE24FF24A701E70105907F
:1010B0000894079428F4360FE71EF81E491F511DA7
:1010C000660F771F881F991F0694A1F70590079454
:1010D00028F4E70EF81E491F561FC11D770F881F01
:1010E000991F661F0694A1F70590079428F4F80E3F
:1010F000491F561FC71FD11D880F991F661F771FD5
:101100000694A1F70590079420F4490F561FC71FB6
:10111000D81F990F661F771F881F0694A9F784911F
:101120001095177041F0D695C79557954795F79448
:10113000E7941A95C1F7ECE3F1E0689415901591E6
:1011400035916591959105907FE27395E118F10ACB
:10115000430B560BC90BD009C0F7E10CF11E431F1E
:10116000561FC91FD01D7EF4703311F48A95E6CF47
:10117000E894015030F0080F0AF40027021708F431
:10118000202F2395022F7A3328F079E37D932A9537
:10119000E9F710C07D932A9589F60694979567958F
:1011A000379517951794E118F10A430B560BC90BA5
:1011B000D00998F023957E9173957A3308F070E307
:1011C0007C932013B8F77E9170617D9330F0839506
:1011D00071E37D9370E32A95E1F71124EF90FF907E
:1011E0000F911F91CF91DF91992787FD90950895D9
:1011F000FC010590615070400110D8F780959095E2
:101200008E0F9F1F0895FC016150704001900110E6
:10121000D8F7809590958E0F9F1F08954532510500
:1012200018F4423008F004C0FB011082CB0108958D
:10123000BB274A3031F4992322F4BDE29095819581
:101240009F4F01C0BB27FB015527AA27880F991F75
:10125000AA1FA41710F0A41B83955051B9F7A05DE5
:10126000AA3308F0A95DA193009779F7B111B19362
:101270001192CB01D6C00F931F93CF93DF93FB0145
:10128000238121FD03C08FEF9FEF2CC022FF16C0EA
:1012900046815781248135814217530744F4A08148
:1012A000B1819D012F5F3F4F318320838C93268135
:1012B00037812F5F3F4F3783268314C08B01EC01AA
:1012C000FB010084F185E02D1995892BE1F6D80109
:1012D00016968D919C911797019617969C938E93D5
:1012E0001697CE01DF91CF911F910F9108950F9323
:1012F0001F93CF93DF93CDB7DEB72E970FB6F89439
:10130000DEBF0FBECDBF0E891F89888D998D26E067
:101310002C831A83098397FF02C080E090E801972D
:101320009E838D83AE01445E5F4F6A8D7B8DCE01BF
:101330000196CCDA4D815E8157FD0AC02F81388538
:10134000421753070CF49A01F801E20FF31F1082C1
:101350002E960FB6F894DEBF0FBECDBFDF91CF91B2
:101360001F910F910895FA01AA27283051F12031D9
:1013700081F1E8946F936E7F6E5F7F4F8F4F9F4F29
:10138000AF4FB1E03ED0B4E03CD0670F781F891F6B
:101390009A1FA11D680F791F8A1F911DA11D6A0F39
:1013A000711D811D911DA11D20D009F468943F91EC
:1013B0002AE0269F11243019305D3193DEF6CF01EB
:1013C0000895462F4770405D4193B3E00FD0C9F7B1
:1013D000F6CF462F4F70405D4A3318F0495D31FD1E
:1013E0004052419302D0A9F7EACFB4E0A695979571
:1013F000879577956795BA95C9F700976105710547
:1014000008959B01AC010A2E069457954795379590
:101410002795BA95C9F7620F731F841F951FA01DEA
:101420000895DC01FC01672F71917723E1F7329772
:1014300004C07C916D9370836291AE17BF07C8F3AF
:061440000895F894FFCFAF
:10144600324572726F722031380A0D004572726F22
:10145600722032380A0D004572726F722030380AD7
:101466000D004572726F722034300A0D004572729B
:101476006F722035300A0D004572726F7220353852
:101486000A0D004C6967687420496E74656E73694D
:1014960074793A20000D0A4D454E553A0A000D3032
:1014A6002E20457869740A000D312E205072696E1F
:1014B60074206C6F7765726361736520616C706808
:1014C600616265740A000D322E205072696E7420B6
:1014D60075707065726361736520616C70686162B6
:1014E60065740A000D332E20426C696E6B204C45E4
:1014F6004420332074696D65730A000D342E205321
:10150600746172742032487A205369676E616C2F59
:101516006C6967687420696E74656E736974790A9C
:10152600000D352E2053746F702054696D65720A54
:10153600000D362E204272696768746E65737320DB
:10154600436F6E74726F6C0A000D372E20476574F8
:101556002074656D70657261747572650A000D435D
:10156600686F6F736520616E206F7074696F6E3A75
:10157600200A000D0A4272696768746E65737320EB
:101586004D656E753A0A000D20546F20696E6372C0
:1015960065617365204272696768746E657373204E
:1015A6007072657373202B0A000D20546F206465DA
:1015B600637265617365204272696768746E6573EC
:1015C60073207072657373202D0A000D20426163CB
:1015D6006B20746F204D61696E204D656E750A0033
:1015E60054656D70657261747572653A20252E3288
:1015F6006620430A0045786974696E672E2E2E0AA6
:10160600000D43686F6F736520616E206F7074699B
:101616006F6E3A0A000D312E2053746172742032B7
:10162600487A205369676E616C0A000D322E204796
:101636006574204C6967687420496E74656E7369B9
:1016460074790A005374617274696E672032487A3D
:10165600207369676E616C2E2E2E0A0047657474BE
:10166600696E67204C6967687420496E74656E738D
:101676006974792E2E2E0A00496E76616C69642093
:10168600696E7075742C2072657475726E696E67FA
:1016960020746F206D61696E206D656E752E2E2E1D
:1016A6000A0053746F7070696E672054696D6572B5
:1016B6002E2E2E0A004272696768746E6573732057
:1016C600496E637265617365640A00427269676890
:1016D600746E657373204465637265617365640A2D
:1016E60000496E76616C696420696E7075742C2091
:0C16F60074727920616761696E2E0A0031
:00000001FF
