:1000000099C00000B7C00000B5C00000B3C0000038
:10001000B1C00000AFC00000ADC00000ABC0000028
:10002000A9C00000A7C00000A5C00000A3C0000038
:10003000A1C000002FC200009DC000009BC00000B6
:1000400099C0000097C0000095C0000093C0000058
:1000500091C000008FC000008DC000008BC0000068
:1000600089C0000087C0000085C0000083C0000078
:1000700081C000007FC000007DC000007BC0000088
:1000800079C0000077C0000075C0000073C0000098
:10009000CEC20000B0C200006DC000006BC0000006
:1000A00069C0000067C00000E4C1000063C0000038
:1000B00061C000005FC000005DC000005BC00000C8
:1000C00059C0000057C0000055C0000053C00000D8
:1000D00051C000004FC000004DC000004BC00000E8
:1000E00049C0000047C0000045C0000043C00000F8
:1000F00041C000003FC000003DC000003BC0000008
:1001000039C0000037C0000035C0000033C0000017
:1001100031C000002FC000002DC000002BC0000027
:1001200029C0000027C0000025C0000023C0000037
:1001300021C0000011241FBECFEFD1E8DEBFCDBF2C
:1001400000E00CBF12E0A0E0B2E0E4EBF3E200E07C
:100150000BBF02C007900D92AE31B107D9F729E16C
:10016000AEE1B2E001C01D92AB3FB207E1F701D1B1
:100170000C94D81145CF1092CB020895CF931F92C3
:100180008CE18F9384E092E09F938F931F928DE692
:100190008F938EE592E09F938F930E94860E8DB78A
:1001A0009EB708960FB6F8949EBF0FBE8DBF809184
:1001B000CB02811130C080915E02882361F1ACECEA
:1001C000B2E081E090E016969C938E931597C1E083
:1001D0001796CC9317971896CC93189782E0199698
:1001E0008C931997EEE5F2E01B96FC93EE931A9729
:1001F00001900020E9F73197EE55F2401C96EC9300
:100200001C978BEB90E01E969C938E931D97CD01CF
:1002100002D3C093CB02CF910895B0CF0895CF936E
:100220002091CB02211116C0ECECF2E021E030E08D
:1002300036832583C1E0C783C08722E02187938767
:10024000828764878BEB90E096878587CF01E3D226
:10025000C093CB02CF910895EF92FF921F93CF935B
:10026000DF931F92CDB7DEB77C0186E08983D7018B
:1002700019968C91813019F081110EC01EC0D701E2
:100280001796ED91FC9118978081863039F48FE4B0
:1002900065D18BE463D115C010E001C010E0D70137
:1002A0001796ED91FC911897E10FF11D808156D1C1
:1002B0001F5FF7018185181790F361E0CE01019669
:1002C000AEDF81E00F90DF91CF911F91FF90EF9013
:1002D0000895CF93DF9382E48F9386E08F9381E438
:1002E0008F9389E88F9384E192E09F938F93CEE17F
:1002F000D2E0DF93CF930E94C20E09900020E9F76D
:100300002197BE016E5172408EE192E088DF8DB779
:100310009EB708960FB6F8949EBF0FBE8DBFDF91B3
:10032000CF9108950F931F93CF93DF938C01892B67
:1003300099F0C0E0D0E039D180915D028D3609F4AA
:100340001DDF80915D028D3618F48F5F80935D0212
:1003500021960C171D0779F78DED92E00E94390D5B
:100360008DED92E00E94900DDF91CF911F910F9142
:1003700008950E94C40C60E076E980E090E099D096
:1003800081E6ECD080E592E00E94900D00E512E05D
:100390000F2EF0ED8F2EF7E09F2EA12CB12CF02D1B
:1003A000332433940F2EF9E66F2EF1E07F2EF02DDB
:1003B000CDEDD2E00F2EF4E1CF2ED12CE12CF12C9B
:1003C000F02D0F2EFDE04F2EF1E05F2EF02D0E945C
:1003D000CB0C84D18091EA028111F9CFF801868299
:1003E0009782A086B18632867486638680E090E02C
:1003F000CFD180E190E0D3D18FE00E94F30B832D29
:100400000E94EF0B6CE271E0832DD0D1CE82DF82AF
:10041000E886F9861A865C864B863092EA02D7CF48
:1004200014BE0FB6F894A8958091600088618093FF
:100430006000109260000FBEE1E6F0E080E880838B
:100440001082789401C008951092D21980E197E249
:100450009093A9008093A800E1EAF0E088E080830F
:10046000808182608083E2E7F0E080818260808327
:1004700008951F920F920FB60F9211248F938091BF
:10048000D2198F5F8093D2198F910F900FBE0F906A
:100490001F9018951F920F920FB60F9211248F93F1
:1004A00081E08093EB028F910F900FBE0F901F9011
:1004B0001895DC01CB01880F991FAA1FBB1F880F5D
:1004C000991FAA1FBB1F9C01AD01220F331F441FA0
:1004D000551F220F331F441F551F60E074E284EF45
:1004E00090E00E94060EBA01A9014150510961092C
:1004F0007109BB27A72F962F852F8093CD0040939E
:10050000CC0082E08093C80088E98093C90086E02F
:100510008093CA00EAE1F6E089E894E09187808759
:1005200080E991E09583848317821682118210827C
:1005300013821282EFE7F4E02EEE32E0318720875B
:10054000958384831782168211821082138212820D
:1005500081E08093ED021092EC020895CF93DF9337
:10056000EAE1F6E026813781648175812617370735
:10057000C9F0C085D18542815381DA011196B383D8
:10058000A283FE01E40FF51F80836A177B0721F425
:1005900010921D0610921C062F5F3F4F30932106CC
:1005A00020932006DF91CF9108954FB7F894EFE79D
:1005B000F4E02085318580819181BC016F5F7F4FA0
:1005C00071836083D901A80FB91F8C9160817181FB
:1005D000248135816217730721F4109280041092F0
:1005E0007F04EFE7F4E0268137812150310937831A
:1005F00026834FBF08951F920F920FB60F921124BA
:100600000BB60F928F93EF93FF9381E08093ED02EF
:10061000E9ECF0E080818F7D8083FF91EF918F91F5
:100620000F900BBE0F900FBE0F901F9018951F924A
:100630000F920FB60F9211240BB60F922F933F9388
:100640004F935F936F937F938F939F93AF93BF93DA
:10065000EF93FF938091C8002091CE008C7159F5E3
:10066000EFE7F4E046815781848195814817590767
:1006700011F14085518582819381BC016F5F7F4F6D
:1006800073836283DA01A80FB91F2C93228133810F
:10069000848195812817390721F4109282041092E1
:1006A0008104EFE7F4E08681978101969783868342
:1006B00081E08093EC02FF91EF91BF91AF919F9108
:1006C0008F917F916F915F914F913F912F910F90FB
:1006D0000BBE0F900FBE0F901F90189580912006B3
:1006E00090912106009769F12091ED02222349F1B2
:1006F000EAE1F6E06085718520813181A9014F5FD3
:100700005F4F51834083DB01A20FB31F2C916481A3
:1007100075814617570721F410921B0610921A068E
:10072000019790932106809320069FB7F894209319
:10073000CE00E9ECF0E08081806280831092ED02CF
:100740009FBF2FB7F8949091EC021092EC02409169
:100750008504509186042FBF992311F0CA01E2CD80
:100760000895E3EDF9E1148215821182108217A237
:1007700016A2E9EDF9E189EF99E111921192E817DA
:10078000F907D9F742D660D30DD140D092C1089570
:100790009093D4198093D3190C94090C08959093D5
:1007A000D6198093D5190C94F70B0895E82FF0E033
:1007B000EE0FFF1FE752F64E7183608308958BD3CF
:1007C00020D74DC00895E0912406F091250630977A
:1007D000D9F0228133818217930789F405C02281E1
:1007E00033812817390759F4DC01AD57BF4F2C91DD
:1007F000278713962C91208B22E0248305C001903B
:10080000F081E02D309759F711C108951092250617
:10081000109224060895FC01148217861382128216
:10082000A3EDB9E196968D919C9197970196979635
:100830009C938E939697809124069091250600971D
:1008400039F411821082F0932506E093240608956E
:1008500091838083F0932506E093240608950F93F7
:100860001F93CF93DF93E0912406F09125063097F4
:1008700009F493C0EF018C81882321F0823009F4C0
:1008800066C085C09AD08C01009721F482E08C83E9
:100890008F8783C09B838A8381E08C83F801E9572B
:1008A000FF4F83EE93E0918380833197898582FBAC
:1008B000882780F980839985D8011B968C911B9796
:1008C00090FB80F91B968C931B97998593FB992736
:1008D00090F990FB82F91B968C931B97E3EDF9E15D
:1008E00084818F5F84831C968C931C978081918177
:1008F0001E969C938E931D978D819E8150969C93FE
:100900008E931F978885982F9F7051968C91519741
:10091000807F892B51968C9351979F819295907FE0
:100920008F70892B51968C93F801EF57FF4F4C85B0
:1009300050E06A857B85808191810E947D0EF8015F
:1009400091818C85890F8183C80182D526C0EC17DF
:10095000FD0741F4808191819093250680932406C0
:100960000AC0FC01808191818C179D07D1F7888195
:10097000998191838083E3EDF9E186A197A10197A5
:1009800097A386A3ED85FE85CE01199506C0099033
:10099000D881C02D209709F06ECFDF91CF911F91A4
:1009A0000F910895E6E2F6E084E396E11082E757BE
:1009B000FF4FE817F907D1F708958091260688239D
:1009C00059F0EFEAF6E064E376E181E090E0AC0113
:1009D0002081211122C002C040E050E069E8649FFC
:1009E0009001659F300D1124C9018A5D994FFC016A
:1009F00011926A95E9F740E1FC014183EF57FF4FFF
:100A0000285C394F31832083E3EDF9E126A137A13A
:100A10002F5F3F4F37A326A308950196E757FF4F57
:100A2000E617F707A1F680E090E00895FC01108238
:100A3000E3EDF9E186A197A1019797A386A3089515
:100A4000009741F0FC01E757FF4F86E1E433F807D8
:100A500018F012C0E6E2F6E08081882321F00FC092
:100A6000808181110FC0E757FF4F86E1E433F8071B
:100A7000B8F380E090E0089580E090E008958E2F34
:100A80009F2F08958E2F9F2F0895FC01DC01AD57F5
:100A9000BF4F1C92A3EDB9E114969C9114979F5FF0
:100AA00014969C93149794878D919C919687858733
:100AB0000895A5E3B6E180E090E04FEF5FEF119677
:100AC0005C934E93FC01EE0FFF1FEE0FFF1FEE0F26
:100AD000FF1FE81BF90BEC5CF94E20812E7F208371
:100AE00014961C921497019617968436910539F73F
:100AF00008950F931F93CF93DF93E5E3F6E120E092
:100B000030E0062F10E04081518148175907B1F4B9
:100B1000D901AA0FBB1FAA0FBB1FAA0FBB1FA21B85
:100B2000B30BAC5CB94E4C9146954170C42F40E07C
:100B3000D42FC017D10711F4CD0108C02F5F3F4F4C
:100B4000379624363105F9F680E090E0DF91CF91B9
:100B50001F910F910895A0E0B0E0E4E3F6E18081F9
:100B600080FD0DC08581882381F0109739F015969E
:100B70009C911597891718F4DF0101C0DF013796A2
:100B800088E1E03FF80759F7FD0180818D708063AF
:100B9000808380E88583CF010895FC01808180FDFA
:100BA00005C08FEF9FEF9283818315820895A1DFA7
:100BB000009721F0FC018381948108958FEF9FEFCE
:100BC000089597DF009709F0E8CF08950F931F93DA
:100BD000CF93DF93FC010185128511232CF48585C9
:100BE000968508171907E1F5858196810196C1F16F
:100BF000EF0160E0858596857CDFFC01892BA1F003
:100C00008F8198850196F9F42091D3193091D419E8
:100C10008F85988928173907B1F41483038380815D
:100C20008F70806380830AC096DFFC018D859E856E
:100C30009283818389859A8594838383CD57DF4FFF
:100C4000888186830DC08381948108171907B1F3C9
:100C50009681DE01AD57BF4F8C919817F0F2EECF21
:100C6000DF91CF911F910F910895CF93DF93FC01F6
:100C7000878590898F3F2FEF9207D9F1EF01638528
:100C800063FB662760F935DFDC01892B91F18C91DC
:100C900080FD2FC0FE01ED57FF4F8081811119C0EB
:100CA0008C918F7080638C9315968C9115978F5FC4
:100CB00015968C938F3FE9F4E9E3F6E125EF38E1EF
:100CC000808186958F5F80833796E217F307C1F79F
:100CD00010C09C91892F82958F70815F8F70282F13
:100CE0002295207F9F70922B9C93811102C0CD0191
:100CF00054DFDF91CF910895CF93DF93FC01878577
:100D000090898F3F2FEF920729F48FEF9FEF908705
:100D100087830EC0238522FF03C09087878308C086
:100D2000EF01638563FB662760F941DF98878F8356
:100D3000DF91CF910895AF92BF92CF92DF92EF9261
:100D4000FF921F93CF93DF93EC011B8513FB1127B9
:100D500010F9CF84D888612FC60129DF019659F098
:100D6000FE01E957FF4F11821082319782E08083A4
:100D7000CE016ED322C0AD84BE841FDE7C010097FD
:100D8000D1F083DEF70181818A5F8183E957FF4FCC
:100D900011821082F701B08AA786EF57FF4F0190AA
:100DA000F081E02D81E08083B282A182D482C3826F
:100DB0001583C7014DD3CE0139DEDF91CF911F914D
:100DC000FF90EF90DF90CF90BF90AF900895FC011F
:100DD0002185263049F40780F085E02D65818381E7
:100DE0009481EFDE81E0089580E00895DC0119969A
:100DF0002C911997222371F01796ED91FC91189779
:100E00002081222319F0213019F006C0B2C30895C1
:100E1000DECF089580E0089580E00895BC01E2E00F
:100E2000F9E124E339E140E051E09081992319F0A0
:100E300091509083452F3596E217F307B1F744237D
:100E400011F0CB016DC60895E2E0F9E184E399E188
:100E500010823596E817F907D9F7E0EFF8E184E654
:100E600090E0A0E0B0E086839783A087B1871286E8
:100E70008EE097E09487838766EF76E080E096CCFB
:100E80000895CF93DF93DC01ED91FC9111972181BF
:100E90002838F1F420812F7D2134D1F412962C9141
:100EA0002031B0F0EC0189DD009791F020E2FC01E7
:100EB00020832A8121832B81ED57FF4F20832C81B2
:100EC000319620834A8150E068817981029615D756
:100ED000DF91CF9108952F923F924F925F926F9240
:100EE0007F928F929F92AF92BF92CF92DF92EF92BA
:100EF000FF920F931F93CF93DF93CDB7DEB72C975D
:100F00000FB6F894DEBF0FBECDBF00E010E00F2E8D
:100F1000F4E2BF2EF02D0F2EF3EDEF2EF9E1FF2EB0
:100F2000F02D552453946894AA24A4F86894772447
:100F300073F86894662462F8312C212C0F2EFFE19F
:100F40004F2EF02DCC24C394D12CDAC1D8018C9132
:100F5000823209F405C118F4803241F0D1C18332E4
:100F600009F4C9C1843209F4C9C1CAC1F801B08207
:100F70008385982F9A7009F0C3C1258136812F3F50
:100F80003F4F91F4D8011F968D919C915097F70196
:100F9000208131812817390719F0019609F0B0C175
:100FA000E2E2D801EC93ACC1D8011F962D913C919F
:100FB00050972F3F3F4F11F480FDA2C1F7012081D0
:100FC0003181D8011D968D919C911E972817390764
:100FD00009F496C1C801FADDEEEFF8E180E090E097
:100FE000832C922C9C014481442309F474C0D801C1
:100FF0001D966D917C911E974081518164177507F4
:1010000009F06AC01C968C911C97F901EE0FFF1F26
:10101000EE0FFF1FE20FF31FE250F74E9281981B75
:10102000983008F03EC0F901EE0FFF1FEE0FFF1FD2
:10103000E20FF31FE250F74E8381482F50E0092E54
:1010400002C0559547950A94E2F740FF17C0F70193
:101050002081318117968D919C9118972817390717
:1010600009F04EC11B966C911B9763FB662760F9D4
:101070001F968D919C915097A4DD42C1F901EE0F0E
:10108000FF1FEE0FFF1F2E0F3F1FF901E250F74E1B
:10109000960102C0220F331F9A95E2F7822B8383B9
:1010A00036C1F901EE0FFF1FEE0FFF1F2E0F3F1F7E
:1010B000F901E250F74E82838381282F30E0919529
:1010C000A90102C0440F551F9A95E2F7CA01816039
:1010D000838344821CC14F01019635968A30910565
:1010E00009F080CF8114910409F40AC1D8011D963A
:1010F0008D919C911E97F401918380831C968C9115
:1011000082835382448280EF98E10AD500C1D701DF
:101110002D913C91F801878590892817390781F036
:10112000438542FD0BC0C801E1D1D7012D913C910F
:10113000F801878590892817390711F0019621F465
:10114000E2E2D801EC93DCC0D80117968D919C9116
:1011500018978217930709F0D3C0E3E2EC93D0C04D
:101160001092FD18D80151968C91519782958F70ED
:10117000E82FF0E0EE0FFF1FE752F64E0190F081EE
:10118000E02D309709F460C01D962D913C911E977B
:101190003A8329831F964D915C9150975C834B83D2
:1011A00051969C9151979F709D838E83AF57BF4FEF
:1011B0008D919C9199878887B8016E5F7F4F861BC0
:1011C000970BD80111969C911197981B9A87AD5750
:1011D000BF4F8C918B8711968C918C87D8011B9671
:1011E0009C91692F637092FD02C080E001C080E293
:1011F000862B93FD02C090E001C090E4892B4F3F05
:101200005F4F11F090E001C0962D892BD8011996FF
:101210004D915C911A972417350711F090E001C0A9
:10122000972D892B8F83D80115962D913C91169778
:101230002F3F3F4F11F090E001C09A2D892B8F83F3
:10124000CE010196199501C080E0F801938590FFC9
:1012500080E0D80117962D913C9118972F3F3F4F72
:1012600069F4F70140815181D8011F962D913C917D
:1012700050974217530711F493FF852DF8012581EC
:1012800036812F3F3F4FA1F1D7012D913C912F3F48
:101290003F4F71F1882361F190DB4C01009741F1E0
:1012A000F4DBF40181818D5F8183E957FF4F118267
:1012B0001082D8011B968C911B9786958170F40142
:1012C000938580FB91F993871D968D919C911E9734
:1012D000908B8787EF57FF4F0190F081E02D1082B0
:1012E0008091FD1882831C968C918183C401B0D0BB
:1012F000D801BC9205C0C8011EDD02C0C80196DB42
:10130000C8019EDB8C01892B09F020CE07C0F801B3
:1013100087819085019609F008CFF9CE2C960FB6FB
:10132000F894DEBF0FBECDBFDF91CF911F910F911B
:10133000FF90EF90DF90CF90BF90AF909F908F90F5
:101340007F906F905F904F903F902F900895EF9215
:10135000FF920F931F93CF937C0110E080E090E009
:1013600001E0C3E113C0FC012081213179F4EC5785
:10137000FF4F208131812150310931832083232B7C
:1013800021F4FC01C083102F01C0102F59DB0097FE
:1013900051F7112311F0C701C3D3CF911F910F91C2
:1013A000FF90EF900895EF92FF920F931F93CF93CA
:1013B000DF937C0110E080E090E001E0D7E1C0E144
:1013C00016C0FC012081263191F4EC57FF4F20819B
:1013D00031812150310931832083232B39F4FC01E1
:1013E000D083ED57FF4FC083102F01C0102F28DB93
:1013F000009739F7112311F0C70192D3DF91CF91F4
:101400001F910F91FF90EF90089510924B19109239
:101410004A19EDE3F9E182E390E0A0E0B0E08683D1
:101420009783A087B187128683ED99E0948783879D
:10143000E0E3F9E18AE090E0A0E0B0E08683978302
:10144000A087B187128687EA99E0948783870895F9
:10145000CF93DF93EC01FC01EA57FF4F808181FFBE
:1014600003C092E1988302C092E19883FE01ED5798
:10147000FF4F108280FF05C02FEF3FEF3E832D838B
:1014800006C02091D5193091D6193E832D838570E1
:1014900019F4CE0131DC04C08F85988998878F8339
:1014A000E3EDF9E1808191819A87898785818F5F5A
:1014B00085838C838F819885019669F481E498E80F
:1014C0009B838A830CD4CC57DF4F87709927019672
:1014D0009983888308C081E698E89B838A83CC57E8
:1014E000DF4F19821882DF91CF9108950F931F93D8
:1014F000CF93DF938C0161DAEC01892BA9F182E1B2
:101500008883F80181818983FE01ED57FF4F1082A6
:10151000E6D3FE01EC57FF4F877099270196918320
:101520008083339611821082F801418150E0B80126
:101530006E5F7F4FCE010296E0D381E498E89B83F3
:101540008A838FEF9FEF98878F83F801858196813B
:101550009E838D83E3EDF9E1808191819A8789876C
:1015600085818F5F85838C83DF91CF911F910F9150
:101570000895CF93DF93FC0121852330D9F410C067
:10158000FC012081263189F43485298132130DC074
:1015900027E120832A81EA57FF4F208381E00BC097
:1015A000FC01C781D08580E090E04ADA009741F7DE
:1015B00080E001C080E0DF91CF910895E0914A1969
:1015C000F0914B19813021F048F0823019F004C0BD
:1015D00080E205C081E203C081E001C080E0DF015C
:1015E000AD57BF4F8C9385E1808310924B191092B9
:1015F0004A19E3EDF9E186A197A1019797A386A384
:1016000008959F92AF92BF92CF92DF92EF92FF9296
:101610000F931F93CF93DF93C0E0D0E00F2EF4E140
:10162000AF2EF02D03ED19E10F2EF7E1DF2EF02D97
:101630000F2EF6E19F2EF02D0F2EF9E2EF2EF12C5A
:10164000F02D0F2EF3E1CF2EF02D0F2EF1E1BF2E56
:10165000F02D60C088818331C1F018F4823139F0F7
:1016600059C0853149F1873109F445C053C0FE01A5
:10167000EC57FF4F80819181892B29F0B88280E35C
:1016800099E14ED247C0C88245C080914A199091D5
:101690004B19892B09F03EC0D0934B19C0934A19BE
:1016A000A8826981CE010296CBD0F80186A197A1CC
:1016B000019697A386A32EC0FE01ED57FF4F8081B0
:1016C000811117C02D853E85F801808191812817F1
:1016D000390769F48B8580FF0AC09882FE01EC57B8
:1016E000FF4FF182E0828DE399E11AD213C0D882D4
:1016F00011C0D8820FC0CE01B8DAFE01E957FF4F02
:101700000190F081E02D309719F4CE018FD902C0FD
:10171000CE011995CE0194D9EC01892B09F09ACF0D
:10172000DF91CF911F910F91FF90EF90DF90CF90BD
:10173000BF90AF909F90089580914C19982F9F7003
:10174000E4E5F1E08081807F892B808380914C19D2
:10175000882329F080914D19809353010895809139
:101760004D19982F9F71E8E4F1E08081807E892BEC
:101770008083089593E090934201E1E4F1E0908149
:101780009F719830E1F780934201E1E4F1E09081AC
:101790009F718913FCCF089588E0ECDF8FEF809371
:1017A0004F0180914E19882311F086E1E3CF08950F
:1017B000E9E3F1E080818160808310924E191092FC
:1017C0004C1981E08093CF1988E0D4DF8BEE8093B1
:1017D0005601ECE4F1E08081806880830895809375
:1017E0004E19DACF089580934D19A6CF0895CF935F
:1017F000DF931F921F92CDB7DEB79A8389838093C0
:1018000062018A81809363010F900F90DF91CF91E5
:101810000895CF93DF931F921F92CDB7DEB79A83BF
:101820008983809360018A818093610199818A8193
:10183000890F80936D010F900F90DF91CF910895E4
:101840001F93CF93DF93182FD92FC62F89E192DFF3
:101850008FEF80934F0182E08C0F80938001CC2327
:1018600071F0A12FBD2FC1506C2F70E06E577E4FCD
:10187000E1E8F1E08D918193E617F707D9F783E06E
:101880008093CF1982E080934201DF91CF911F9125
:1018900008951F93CF93DF9300D01F921F92CDB76F
:1018A000DEB78091CF19823009F465C080914F0175
:1018B00083FF3EC0A0917B016A2F70E0AB014F5FB8
:1018C0005F4F80E090E020E0FC01E058FE4F308167
:1018D000FC01E15BF64E30832F5F822F90E084178E
:1018E000950794F38FE499E19A838983A250AB839F
:1018F000FB01E15BF64E80818C83809147018A5524
:101900008D83CE010196BDDAE1E4F1E080818F7133
:101910008631E1F7EFE4F1E0808188608083ECE4D8
:10192000F1E080818F77808380818068808323C00D
:1019300080914F0186FF1FC0809141018F718931D5
:10194000A9F41091420112951695177049F01330C1
:1019500021F0153021F013E003C011E001C012E0C6
:101960001BDF81E08093CF19812F28DEEFE4F1E0C7
:101970008081806480830F900F900F900F900F9064
:10198000DF91CF911F9108950E9410026DD010DF5A
:101990000C94B10308957DDF0E94DF03CCC008954D
:1019A0000F931F93CF93DF93EC018091D019909107
:1019B000D119009709F445C04E815F81688579850A
:1019C000FC01028113812481358140175107620790
:1019D000730760F0DC0117C0028113812481358117
:1019E000401751076207730768F403C0FC01A0E0C9
:1019F000B0E0041B150B260B370B028313832483E3
:101A000035830AC0DF01401B510B620B730BED9154
:101A1000FC911197309701F74A835B836C837D8338
:101A2000109741F08D919C91119799838883CD9364
:101A3000DC9315C099838883D093D119C093D019B2
:101A40000EC0198218828E819F81A885B9858A83EC
:101A50009B83AC83BD83D093D119C093D019DF9100
:101A6000CF911F910F9108951092D1191092D01912
:101A70000895CF93DF93A091D019B091D119109709
:101A800091F1A817B90751F50AC08E179F0729F5DC
:101A9000109731F0208131812D933C9307C0FC01D8
:101AA000208131813093D1192093D0190190F08198
:101AB000E02D3097C1F04281538164817581EC0142
:101AC0008A819B81AC81BD81840F951FA61FB71FA2
:101AD00082839383A483B58306C0DF01ED91FC91DB
:101AE0001197309791F6DF91CF910895E091D01939
:101AF000F091D119309771F0E817F90721F40CC073
:101B00008E179F0759F00190F081E02D3097C1F7B3
:101B100080E0089580E0089581E0089581E00895CF
:101B2000CF93DF93EC01E2DF811102C0CE0138DFF9
:101B3000DF91CF910895CF92DF92EF92FF92CF93F2
:101B4000DF938091D219882309F459C08FB7F89494
:101B5000C090D2191092D2198FBFD12CE12CF12C48
:101B6000CC0CDD1CEE1CFF1CD701C601880F991F91
:101B7000AA1FBB1F880F991FAA1FBB1FC80ED91E03
:101B8000EA1EFB1EC091D019D091D1192097B9F14E
:101B90008A819B81AC81BD81C816D906EA06FB0605
:101BA00010F1C81AD90AEA0AFB0A88819981909330
:101BB000D1198093D0198A85813011F4CE01F0DEDD
:101BC000EB85FC85CE011995C091D019D091D11922
:101BD0002097A9F08A819B81AC81BD81C816D90666
:101BE000EA06FB06F0F68A819B81AC81BD818C19E7
:101BF0009D09AE09BF098A839B83AC83BD83DF91B6
:101C0000CF91FF90EF90DF90CF900895A1E21A2E30
:101C1000AA1BBB1BFD010DC0AA1FBB1FEE1FFF1F90
:101C2000A217B307E407F50720F0A21BB30BE40BE0
:101C3000F50B661F771F881F991F1A9469F7609527
:101C40007095809590959B01AC01BD01CF010895E1
:101C50008F929F92AF92BF92CF92DF92EF92FF92BC
:101C6000CF93DF93EC01688179818A819B81611533
:101C700071058105910521F464E279ED8BE597E02A
:101C80002DE133EF41E050E058D349015A019B0167
:101C9000AC01A7EAB1E46DD36B017C01ACEEB4EF0B
:101CA000A501940172D3DC01CB018C0D9D1DAE1DED
:101CB000BF1DB7FF03C00197A109B048888399836E
:101CC000AA83BB839F77DF91CF91FF90EF90DF9046
:101CD000CF90BF90AF909F908F900895B9CF80E044
:101CE00092E0B6CFA0E0B0E08093000290930102B2
:101CF000A0930202B09303020895FB01DC0102C02D
:101D000001900D9241505040D8F708950F931F93C2
:101D1000CF93DF93CDB7DEB72E970FB6F894DEBF23
:101D20000FBECDBF0E891F89888D998D26E02C832B
:101D30001A83098397FF02C080E090E801979E8391
:101D40008D83AE01445E5F4F6A8D7B8DCE0101961F
:101D500047D04D815E8157FD0AC02F8138854217DB
:101D600053070CF49A01F801E20FF31F10822E962C
:101D70000FB6F894DEBF0FBECDBFDF91CF911F919C
:101D80000F9108950F931F93CF93DF93CDB7DEB7D5
:101D90002E970FB6F894DEBF0FBECDBF0E891F89F8
:101DA00086E08C831A8309838FEF9FE79E838D8360
:101DB000AE01465E5F4F688D798DCE01019610D0E1
:101DC000EF81F885E00FF11F10822E960FB6F89480
:101DD000DEBF0FBECDBFDF91CF911F910F91089550
:101DE0002F923F924F925F926F927F928F929F922B
:101DF000AF92BF92CF92DF92EF92FF920F931F9319
:101E0000CF93DF93CDB7DEB72B970FB6F894DEBF35
:101E10000FBECDBF6C017B018A01FC0117821682C7
:101E2000838181FFBFC1CE0101963C01F601938100
:101E3000F70193FD859193FF81917F01882309F438
:101E4000ADC1853239F493FD859193FF81917F0176
:101E5000853221F4B60190E0D6D1E8CF912C212C27
:101E6000312CFFE1F315D8F08B3279F038F4803261
:101E700079F08332A1F4232D20611DC08D3261F0F1
:101E8000803369F4232D216016C0832D8260382EA3
:101E9000E32DE4603E2E2AC0F32DF8601DC037FC10
:101EA0002DC020ED280F2A3040F08E32B9F436FCD8
:101EB00075C1232D2064322E19C036FE06C08AE07B
:101EC000989E200D1124922E11C0EAE02E9E200D26
:101ED0001124222EF32DF0623F2E08C08C3621F4FF
:101EE000832D8068382E02C0883641F4F70193FDB7
:101EF000859193FF81917F018111B3CF982F9F7DB1
:101F00009554933028F40C5F1F4F9FE399830DC0C5
:101F1000833631F0833771F0833509F055C020C026
:101F2000F801808189830E5F1F4F88248394912C50
:101F3000530112C02801F2E04F0E511CF801A0809D
:101F4000B18036FE03C0692D70E002C06FEF7FEFF5
:101F5000C5014ED14C018201F32DFF773F2E15C0F4
:101F6000280122E0420E511CF801A080B18036FE0B
:101F700003C0692D70E002C06FEF7FEFC5012DD166
:101F80004C01F32DF0683F2E820133FC19C0822DE5
:101F900090E088169906A0F4B60180E290E033D173
:101FA0002A94F5CFF50137FC859137FE81915F01C9
:101FB000B60190E028D121102A9421E0821A9108DC
:101FC0008114910479F7E1C0843611F0893639F52E
:101FD000F80137FE07C060817181828193810C5FB7
:101FE0001F4F08C060817181072E000C880B990B70
:101FF0000E5F1F4FF32DFF763F2E97FF09C0909580
:102000008095709561957F4F8F4F9F4FF0683F2E61
:102010002AE030E0A30133D1882E861844C08537EA
:1020200031F4232D2F7EB22E2AE030E025C0932DEF
:10203000997FB92E8F36C1F018F4883579F0AEC08B
:10204000803719F0883721F0A9C0E92FE061BE2E52
:10205000B4FE0DC0FB2DF460BF2E09C034FE0AC0D3
:10206000292F2660B22E06C028E030E005C020E10E
:1020700030E002C020E132E0F801B7FE07C0608125
:102080007181828193810C5F1F4F06C060817181D5
:1020900080E090E00E5F1F4FA301F1D0882E8618DC
:1020A000FB2DFF773F2E36FE0DC0232D2E7FA22E57
:1020B000891458F434FE0BC032FC09C0832D8E7E87
:1020C000A82E05C0B82CA32C03C0B82C01C0B92C75
:1020D000A4FE0FC0FE01E80DF11D8081803321F4C4
:1020E0009A2D997EA92E09C0A2FE06C0B394B3947E
:1020F00004C08A2D867809F0B394A3FC10C0A0FE1A
:1021000006C0B21480F4280C922C9B180DC0B21497
:1021100058F4B60180E290E076D0B394F8CFB214D0
:1021200018F42B1802C0982C212CA4FE0FC0B60165
:1021300080E390E068D0A2FE16C0A1FC03C088E74F
:1021400090E002C088E590E0B6010CC08A2D867848
:1021500051F0A1FE02C08BE201C080E2A7FC8DE23B
:10216000B60190E050D0891430F4B60180E390E0DD
:102170004AD09A94F8CF8A94F301E80DF11D80813A
:10218000B60190E040D08110F6CF222009F44ECE67
:10219000B60180E290E037D02A94F7CFF60186812D
:1021A000978102C08FEF9FEF2B960FB6F894DEBF9A
:1021B0000FBECDBFDF91CF911F910F91FF90EF9098
:1021C000DF90CF90BF90AF909F908F907F906F9057
:1021D0005F904F903F902F900895FC0105906150C3
:1021E00070400110D8F7809590958E0F9F1F08952D
:1021F000FC016150704001900110D8F780959095D6
:102200008E0F9F1F08950F931F93CF93DF93FB01B2
:10221000238121FD03C08FEF9FEF2CC022FF16C04A
:1022200046815781248135814217530744F4A081A8
:10223000B1819D012F5F3F4F318320838C93268195
:1022400037812F5F3F4F3783268314C08B01EC010A
:10225000FB010084F185E02D1995892BE1F6D80169
:1022600016968D919C911797019617969C938E9335
:102270001697CE01DF91CF911F910F910895FA012A
:10228000AA27283051F1203181F1E8946F936E7FB5
:102290006E5F7F4F8F4F9F4FAF4FB1E03ED0B4E0A6
:1022A0003CD0670F781F891F9A1FA11D680F791FE7
:1022B0008A1F911DA11D6A0F711D811D911DA11DF8
:1022C00020D009F468943F912AE0269F1124301908
:1022D000305D3193DEF6CF010895462F4770405DA3
:1022E0004193B3E00FD0C9F7F6CF462F4F70405D52
:1022F0004A3318F0495D31FD4052419302D0A9F7AD
:10230000EACFB4E0A6959795879577956795BA95A6
:10231000C9F700976105710508959B01AC010A2E6C
:1023200006945795479537952795BA95C9F7620F43
:10233000731F841F951FA01D0895052E97FB16F48B
:1023400000940FD057FD05D061DC07FC02D046F4A5
:1023500008C050954095309521953F4F4F4F5F4FA6
:10236000089590958095709561957F4F8F4F9F4F01
:1023700008950FD0A59F900DB49F900DA49F800D40
:10238000911D11240895B7FFF4CFF3DF821B930B47
:102390000895A29FB001B39FC001A39F700D811D3E
:1023A0001124911DB29F700D811D1124911D08955E
:0423B000F894FFCFCF
:1023B4000100000054656D70657261747572653A50
:0E23C4002025640074203D20252E3266000086
:00000001FF
